{
  "_format": "hh-sol-artifact-1",
  "contractName": "Registration",
  "sourceName": "contracts/registration/Registration.sol",
  "abi": [
    {
      "inputs": [
        {
          "internalType": "contract Myria",
          "name": "_myria",
          "type": "address"
        }
      ],
      "stateMutability": "nonpayable",
      "type": "constructor"
    },
    {
      "inputs": [
        {
          "internalType": "uint256",
          "name": "starkKey",
          "type": "uint256"
        }
      ],
      "name": "isRegistered",
      "outputs": [
        {
          "internalType": "bool",
          "name": "",
          "type": "bool"
        }
      ],
      "stateMutability": "view",
      "type": "function"
    },
    {
      "inputs": [],
      "name": "myria",
      "outputs": [
        {
          "internalType": "contract Myria",
          "name": "",
          "type": "address"
        }
      ],
      "stateMutability": "view",
      "type": "function"
    },
    {
      "inputs": [
        {
          "internalType": "address",
          "name": "ethKey",
          "type": "address"
        },
        {
          "internalType": "uint256",
          "name": "starkKey",
          "type": "uint256"
        },
        {
          "internalType": "bytes",
          "name": "signature",
          "type": "bytes"
        },
        {
          "internalType": "uint256",
          "name": "assetType",
          "type": "uint256"
        },
        {
          "internalType": "uint256",
          "name": "vaultId",
          "type": "uint256"
        }
      ],
      "name": "registerAndDeposit",
      "outputs": [],
      "stateMutability": "payable",
      "type": "function"
    },
    {
      "inputs": [
        {
          "internalType": "address",
          "name": "ethKey",
          "type": "address"
        },
        {
          "internalType": "uint256",
          "name": "starkKey",
          "type": "uint256"
        },
        {
          "internalType": "bytes",
          "name": "signature",
          "type": "bytes"
        },
        {
          "internalType": "uint256",
          "name": "assetType",
          "type": "uint256"
        },
        {
          "internalType": "uint256",
          "name": "vaultId",
          "type": "uint256"
        },
        {
          "internalType": "uint256",
          "name": "quantizedAmount",
          "type": "uint256"
        }
      ],
      "name": "registerAndDeposit",
      "outputs": [],
      "stateMutability": "nonpayable",
      "type": "function"
    },
    {
      "inputs": [
        {
          "internalType": "address",
          "name": "ethKey",
          "type": "address"
        },
        {
          "internalType": "uint256",
          "name": "starkKey",
          "type": "uint256"
        },
        {
          "internalType": "bytes",
          "name": "signature",
          "type": "bytes"
        },
        {
          "internalType": "uint256",
          "name": "assetType",
          "type": "uint256"
        },
        {
          "internalType": "uint256",
          "name": "vaultId",
          "type": "uint256"
        },
        {
          "internalType": "uint256",
          "name": "tokenId",
          "type": "uint256"
        }
      ],
      "name": "registerAndDepositNft",
      "outputs": [],
      "stateMutability": "nonpayable",
      "type": "function"
    },
    {
      "inputs": [
        {
          "internalType": "address",
          "name": "ethKey",
          "type": "address"
        },
        {
          "internalType": "uint256",
          "name": "starkKey",
          "type": "uint256"
        },
        {
          "internalType": "bytes",
          "name": "signature",
          "type": "bytes"
        },
        {
          "internalType": "uint256",
          "name": "assetType",
          "type": "uint256"
        }
      ],
      "name": "registerAndWithdraw",
      "outputs": [],
      "stateMutability": "nonpayable",
      "type": "function"
    },
    {
      "inputs": [
        {
          "internalType": "address",
          "name": "ethKey",
          "type": "address"
        },
        {
          "internalType": "uint256",
          "name": "starkKey",
          "type": "uint256"
        },
        {
          "internalType": "bytes",
          "name": "signature",
          "type": "bytes"
        },
        {
          "internalType": "uint256",
          "name": "assetType",
          "type": "uint256"
        },
        {
          "internalType": "uint256",
          "name": "tokenId",
          "type": "uint256"
        }
      ],
      "name": "registerAndWithdrawNft",
      "outputs": [],
      "stateMutability": "nonpayable",
      "type": "function"
    },
    {
      "inputs": [
        {
          "internalType": "address",
          "name": "ethKey",
          "type": "address"
        },
        {
          "internalType": "uint256",
          "name": "starkKey",
          "type": "uint256"
        },
        {
          "internalType": "bytes",
          "name": "signature",
          "type": "bytes"
        },
        {
          "internalType": "uint256",
          "name": "assetType",
          "type": "uint256"
        },
        {
          "internalType": "uint256",
          "name": "tokenId",
          "type": "uint256"
        },
        {
          "internalType": "address",
          "name": "recipient",
          "type": "address"
        }
      ],
      "name": "registerAndWithdrawNftTo",
      "outputs": [],
      "stateMutability": "nonpayable",
      "type": "function"
    },
    {
      "inputs": [
        {
          "internalType": "address",
          "name": "ethKey",
          "type": "address"
        },
        {
          "internalType": "uint256",
          "name": "starkKey",
          "type": "uint256"
        },
        {
          "internalType": "bytes",
          "name": "signature",
          "type": "bytes"
        },
        {
          "internalType": "uint256",
          "name": "assetType",
          "type": "uint256"
        },
        {
          "internalType": "address",
          "name": "recipient",
          "type": "address"
        }
      ],
      "name": "registerAndWithdrawTo",
      "outputs": [],
      "stateMutability": "nonpayable",
      "type": "function"
    },
    {
      "inputs": [
        {
          "internalType": "address",
          "name": "ethKey",
          "type": "address"
        },
        {
          "internalType": "uint256",
          "name": "starkKey",
          "type": "uint256"
        },
        {
          "internalType": "bytes",
          "name": "signature",
          "type": "bytes"
        },
        {
          "internalType": "uint256",
          "name": "assetType",
          "type": "uint256"
        },
        {
          "internalType": "bytes",
          "name": "mintingBlob",
          "type": "bytes"
        }
      ],
      "name": "regsiterAndWithdrawAndMint",
      "outputs": [],
      "stateMutability": "nonpayable",
      "type": "function"
    }
  ],
  "bytecode": "0x60806040523480156200001157600080fd5b506040516200177138038062001771833981810160405281019062000037919062000095565b806000806101000a81548173ffffffffffffffffffffffffffffffffffffffff021916908373ffffffffffffffffffffffffffffffffffffffff1602179055505062000123565b6000815190506200008f8162000109565b92915050565b600060208284031215620000a857600080fd5b6000620000b8848285016200007e565b91505092915050565b6000620000ce82620000e9565b9050919050565b6000620000e282620000c1565b9050919050565b600073ffffffffffffffffffffffffffffffffffffffff82169050919050565b6200011481620000d5565b81146200012057600080fd5b50565b61163e80620001336000396000f3fe6080604052600436106100905760003560e01c80634627d598116100595780634627d59814610164578063579a69881461018d5780638bdb9f80146101ca578063ea864adf146101e6578063ef4ae27f1461020f57610090565b806256829e146100955780630a9c3beb146100c05780631259cc6c146100e9578063352eb84c146101125780634280d50a1461013b575b600080fd5b3480156100a157600080fd5b506100aa610238565b6040516100b79190611303565b60405180910390f35b3480156100cc57600080fd5b506100e760048036038101906100e29190610f1b565b61025c565b005b3480156100f557600080fd5b50610110600480360381019061010b919061105d565b610387565b005b34801561011e57600080fd5b5061013960048036038101906101349190610fcb565b6104b2565b005b34801561014757600080fd5b50610162600480360381019061015d9190611104565b6105da565b005b34801561017057600080fd5b5061018b60048036038101906101869190610e89565b610705565b005b34801561019957600080fd5b506101b460048036038101906101af91906111ab565b61082d565b6040516101c191906112e8565b60405180910390f35b6101e460048036038101906101df9190610fcb565b61090e565b005b3480156101f257600080fd5b5061020d60048036038101906102089190610e09565b610b07565b005b34801561021b57600080fd5b5061023660048036038101906102319190611104565b610c2c565b005b60008054906101000a900473ffffffffffffffffffffffffffffffffffffffff1681565b60008054906101000a900473ffffffffffffffffffffffffffffffffffffffff1673ffffffffffffffffffffffffffffffffffffffff1663dd2414d4888888886040518563ffffffff1660e01b81526004016102bb94939291906112a8565b600060405180830381600087803b1580156102d557600080fd5b505af11580156102e9573d6000803e3d6000fd5b5050505060008054906101000a900473ffffffffffffffffffffffffffffffffffffffff1673ffffffffffffffffffffffffffffffffffffffff1663d91443b7878585856040518563ffffffff1660e01b815260040161034c94939291906113b9565b600060405180830381600087803b15801561036657600080fd5b505af115801561037a573d6000803e3d6000fd5b5050505050505050505050565b60008054906101000a900473ffffffffffffffffffffffffffffffffffffffff1673ffffffffffffffffffffffffffffffffffffffff1663dd2414d4888888886040518563ffffffff1660e01b81526004016103e694939291906112a8565b600060405180830381600087803b15801561040057600080fd5b505af1158015610414573d6000803e3d6000fd5b5050505060008054906101000a900473ffffffffffffffffffffffffffffffffffffffff1673ffffffffffffffffffffffffffffffffffffffff1663ebef0fd0878585856040518563ffffffff1660e01b81526004016104779493929190611430565b600060405180830381600087803b15801561049157600080fd5b505af11580156104a5573d6000803e3d6000fd5b5050505050505050505050565b60008054906101000a900473ffffffffffffffffffffffffffffffffffffffff1673ffffffffffffffffffffffffffffffffffffffff1663dd2414d4878787876040518563ffffffff1660e01b815260040161051194939291906112a8565b600060405180830381600087803b15801561052b57600080fd5b505af115801561053f573d6000803e3d6000fd5b5050505060008054906101000a900473ffffffffffffffffffffffffffffffffffffffff1673ffffffffffffffffffffffffffffffffffffffff1663019b417a8684846040518463ffffffff1660e01b81526004016105a0939291906113f9565b600060405180830381600087803b1580156105ba57600080fd5b505af11580156105ce573d6000803e3d6000fd5b50505050505050505050565b60008054906101000a900473ffffffffffffffffffffffffffffffffffffffff1673ffffffffffffffffffffffffffffffffffffffff1663dd2414d4888888886040518563ffffffff1660e01b815260040161063994939291906112a8565b600060405180830381600087803b15801561065357600080fd5b505af1158015610667573d6000803e3d6000fd5b5050505060008054906101000a900473ffffffffffffffffffffffffffffffffffffffff1673ffffffffffffffffffffffffffffffffffffffff1663ae1cdde6878585856040518563ffffffff1660e01b81526004016106ca9493929190611475565b600060405180830381600087803b1580156106e457600080fd5b505af11580156106f8573d6000803e3d6000fd5b5050505050505050505050565b60008054906101000a900473ffffffffffffffffffffffffffffffffffffffff1673ffffffffffffffffffffffffffffffffffffffff1663dd2414d4878787876040518563ffffffff1660e01b815260040161076494939291906112a8565b600060405180830381600087803b15801561077e57600080fd5b505af1158015610792573d6000803e3d6000fd5b5050505060008054906101000a900473ffffffffffffffffffffffffffffffffffffffff1673ffffffffffffffffffffffffffffffffffffffff166314cd70e48684846040518463ffffffff1660e01b81526004016107f393929190611382565b600060405180830381600087803b15801561080d57600080fd5b505af1158015610821573d6000803e3d6000fd5b50505050505050505050565b60008073ffffffffffffffffffffffffffffffffffffffff1660008054906101000a900473ffffffffffffffffffffffffffffffffffffffff1673ffffffffffffffffffffffffffffffffffffffff16631dbd1da7846040518263ffffffff1660e01b815260040161089f919061133e565b60206040518083038186803b1580156108b757600080fd5b505afa1580156108cb573d6000803e3d6000fd5b505050506040513d601f19601f820116820180604052508101906108ef9190610de0565b73ffffffffffffffffffffffffffffffffffffffff1614159050919050565b60008054906101000a900473ffffffffffffffffffffffffffffffffffffffff1673ffffffffffffffffffffffffffffffffffffffff1663dd2414d4878787876040518563ffffffff1660e01b815260040161096d94939291906112a8565b600060405180830381600087803b15801561098757600080fd5b505af115801561099b573d6000803e3d6000fd5b5050505060008060009054906101000a900473ffffffffffffffffffffffffffffffffffffffff1673ffffffffffffffffffffffffffffffffffffffff16348785856040516024016109ef939291906113f9565b6040516020818303038152906040527eaeef8a000000000000000000000000000000000000000000000000000000007bffffffffffffffffffffffffffffffffffffffffffffffffffffffff19166020820180517bffffffffffffffffffffffffffffffffffffffffffffffffffffffff8381831617835250505050604051610a789190611291565b60006040518083038185875af1925050503d8060008114610ab5576040519150601f19603f3d011682016040523d82523d6000602084013e610aba565b606091505b5050905080610afe576040517f08c379a0000000000000000000000000000000000000000000000000000000008152600401610af59061131e565b60405180910390fd5b50505050505050565b60008054906101000a900473ffffffffffffffffffffffffffffffffffffffff1673ffffffffffffffffffffffffffffffffffffffff1663dd2414d4868686866040518563ffffffff1660e01b8152600401610b6694939291906112a8565b600060405180830381600087803b158015610b8057600080fd5b505af1158015610b94573d6000803e3d6000fd5b5050505060008054906101000a900473ffffffffffffffffffffffffffffffffffffffff1673ffffffffffffffffffffffffffffffffffffffff1663441a3e7085836040518363ffffffff1660e01b8152600401610bf3929190611359565b600060405180830381600087803b158015610c0d57600080fd5b505af1158015610c21573d6000803e3d6000fd5b505050505050505050565b60008054906101000a900473ffffffffffffffffffffffffffffffffffffffff1673ffffffffffffffffffffffffffffffffffffffff1663dd2414d4888888886040518563ffffffff1660e01b8152600401610c8b94939291906112a8565b600060405180830381600087803b158015610ca557600080fd5b505af1158015610cb9573d6000803e3d6000fd5b5050505060008054906101000a900473ffffffffffffffffffffffffffffffffffffffff1673ffffffffffffffffffffffffffffffffffffffff16632505c3d9878585856040518563ffffffff1660e01b8152600401610d1c9493929190611475565b600060405180830381600087803b158015610d3657600080fd5b505af1158015610d4a573d6000803e3d6000fd5b5050505050505050505050565b600081359050610d66816115da565b92915050565b600081519050610d7b816115da565b92915050565b60008083601f840112610d9357600080fd5b8235905067ffffffffffffffff811115610dac57600080fd5b602083019150836001820283011115610dc457600080fd5b9250929050565b600081359050610dda816115f1565b92915050565b600060208284031215610df257600080fd5b6000610e0084828501610d6c565b91505092915050565b600080600080600060808688031215610e2157600080fd5b6000610e2f88828901610d57565b9550506020610e4088828901610dcb565b945050604086013567ffffffffffffffff811115610e5d57600080fd5b610e6988828901610d81565b93509350506060610e7c88828901610dcb565b9150509295509295909350565b60008060008060008060a08789031215610ea257600080fd5b6000610eb089828a01610d57565b9650506020610ec189828a01610dcb565b955050604087013567ffffffffffffffff811115610ede57600080fd5b610eea89828a01610d81565b94509450506060610efd89828a01610dcb565b9250506080610f0e89828a01610d57565b9150509295509295509295565b600080600080600080600060a0888a031215610f3657600080fd5b6000610f448a828b01610d57565b9750506020610f558a828b01610dcb565b965050604088013567ffffffffffffffff811115610f7257600080fd5b610f7e8a828b01610d81565b95509550506060610f918a828b01610dcb565b935050608088013567ffffffffffffffff811115610fae57600080fd5b610fba8a828b01610d81565b925092505092959891949750929550565b60008060008060008060a08789031215610fe457600080fd5b6000610ff289828a01610d57565b965050602061100389828a01610dcb565b955050604087013567ffffffffffffffff81111561102057600080fd5b61102c89828a01610d81565b9450945050606061103f89828a01610dcb565b925050608061105089828a01610dcb565b9150509295509295509295565b600080600080600080600060c0888a03121561107857600080fd5b60006110868a828b01610d57565b97505060206110978a828b01610dcb565b965050604088013567ffffffffffffffff8111156110b457600080fd5b6110c08a828b01610d81565b955095505060606110d38a828b01610dcb565b93505060806110e48a828b01610dcb565b92505060a06110f58a828b01610d57565b91505092959891949750929550565b600080600080600080600060c0888a03121561111f57600080fd5b600061112d8a828b01610d57565b975050602061113e8a828b01610dcb565b965050604088013567ffffffffffffffff81111561115b57600080fd5b6111678a828b01610d81565b9550955050606061117a8a828b01610dcb565b935050608061118b8a828b01610dcb565b92505060a061119c8a828b01610dcb565b91505092959891949750929550565b6000602082840312156111bd57600080fd5b60006111cb84828501610dcb565b91505092915050565b6111dd816114f2565b82525050565b6111ec81611504565b82525050565b60006111fe83856114c5565b935061120b83858461155e565b611214836115a0565b840190509392505050565b600061122a826114ba565b61123481856114d6565b935061124481856020860161156d565b80840191505092915050565b6112598161153a565b82525050565b600061126c600e836114e1565b9150611277826115b1565b602082019050919050565b61128b81611530565b82525050565b600061129d828461121f565b915081905092915050565b60006060820190506112bd60008301876111d4565b6112ca6020830186611282565b81810360408301526112dd8184866111f2565b905095945050505050565b60006020820190506112fd60008301846111e3565b92915050565b60006020820190506113186000830184611250565b92915050565b600060208201905081810360008301526113378161125f565b9050919050565b60006020820190506113536000830184611282565b92915050565b600060408201905061136e6000830185611282565b61137b6020830184611282565b9392505050565b60006060820190506113976000830186611282565b6113a46020830185611282565b6113b160408301846111d4565b949350505050565b60006060820190506113ce6000830187611282565b6113db6020830186611282565b81810360408301526113ee8184866111f2565b905095945050505050565b600060608201905061140e6000830186611282565b61141b6020830185611282565b6114286040830184611282565b949350505050565b60006080820190506114456000830187611282565b6114526020830186611282565b61145f6040830185611282565b61146c60608301846111d4565b95945050505050565b600060808201905061148a6000830187611282565b6114976020830186611282565b6114a46040830185611282565b6114b16060830184611282565b95945050505050565b600081519050919050565b600082825260208201905092915050565b600081905092915050565b600082825260208201905092915050565b60006114fd82611510565b9050919050565b60008115159050919050565b600073ffffffffffffffffffffffffffffffffffffffff82169050919050565b6000819050919050565b60006115458261154c565b9050919050565b600061155782611510565b9050919050565b82818337600083830152505050565b60005b8381101561158b578082015181840152602081019050611570565b8381111561159a576000848401525b50505050565b6000601f19601f8301169050919050565b7f4465706f736974204661696c6564000000000000000000000000000000000000600082015250565b6115e3816114f2565b81146115ee57600080fd5b50565b6115fa81611530565b811461160557600080fd5b5056fea264697066735822122026522c5c46145d17f0ff981a038fcaa81eda0db7e6ff343ab1085abdcd759ab764736f6c63430008010033",
  "linkReferences": {},
  "deployedLinkReferences": {}
}