{
  "_format": "hh-sol-artifact-1",
  "contractName": "ChickenKoin",
  "sourceName": "contracts/ChickenKoin.sol",
  "abi": [
    {
      "inputs": [
        {
          "internalType": "address",
          "name": "_owner",
          "type": "address"
        },
        {
          "internalType": "string",
          "name": "_name",
          "type": "string"
        },
        {
          "internalType": "string",
          "name": "_symbol",
          "type": "string"
        },
        {
          "internalType": "address",
          "name": "_myria",
          "type": "address"
        }
      ],
      "stateMutability": "nonpayable",
      "type": "constructor"
    },
    {
      "anonymous": false,
      "inputs": [
        {
          "indexed": true,
          "internalType": "address",
          "name": "owner",
          "type": "address"
        },
        {
          "indexed": true,
          "internalType": "address",
          "name": "spender",
          "type": "address"
        },
        {
          "indexed": false,
          "internalType": "uint256",
          "name": "value",
          "type": "uint256"
        }
      ],
      "name": "Approval",
      "type": "event"
    },
    {
      "anonymous": false,
      "inputs": [
        {
          "indexed": false,
          "internalType": "address",
          "name": "to",
          "type": "address"
        },
        {
          "indexed": false,
          "internalType": "uint256",
          "name": "amount",
          "type": "uint256"
        }
      ],
      "name": "AssetMinted",
      "type": "event"
    },
    {
      "anonymous": false,
      "inputs": [
        {
          "indexed": true,
          "internalType": "address",
          "name": "previousOwner",
          "type": "address"
        },
        {
          "indexed": true,
          "internalType": "address",
          "name": "newOwner",
          "type": "address"
        }
      ],
      "name": "OwnershipTransferred",
      "type": "event"
    },
    {
      "anonymous": false,
      "inputs": [
        {
          "indexed": true,
          "internalType": "address",
          "name": "from",
          "type": "address"
        },
        {
          "indexed": true,
          "internalType": "address",
          "name": "to",
          "type": "address"
        },
        {
          "indexed": false,
          "internalType": "uint256",
          "name": "value",
          "type": "uint256"
        }
      ],
      "name": "Transfer",
      "type": "event"
    },
    {
      "inputs": [
        {
          "internalType": "address",
          "name": "owner",
          "type": "address"
        },
        {
          "internalType": "address",
          "name": "spender",
          "type": "address"
        }
      ],
      "name": "allowance",
      "outputs": [
        {
          "internalType": "uint256",
          "name": "",
          "type": "uint256"
        }
      ],
      "stateMutability": "view",
      "type": "function"
    },
    {
      "inputs": [
        {
          "internalType": "address",
          "name": "spender",
          "type": "address"
        },
        {
          "internalType": "uint256",
          "name": "amount",
          "type": "uint256"
        }
      ],
      "name": "approve",
      "outputs": [
        {
          "internalType": "bool",
          "name": "",
          "type": "bool"
        }
      ],
      "stateMutability": "nonpayable",
      "type": "function"
    },
    {
      "inputs": [
        {
          "internalType": "address",
          "name": "account",
          "type": "address"
        }
      ],
      "name": "balanceOf",
      "outputs": [
        {
          "internalType": "uint256",
          "name": "",
          "type": "uint256"
        }
      ],
      "stateMutability": "view",
      "type": "function"
    },
    {
      "inputs": [
        {
          "internalType": "uint256",
          "name": "",
          "type": "uint256"
        }
      ],
      "name": "blueprints",
      "outputs": [
        {
          "internalType": "bytes",
          "name": "",
          "type": "bytes"
        }
      ],
      "stateMutability": "view",
      "type": "function"
    },
    {
      "inputs": [],
      "name": "decimals",
      "outputs": [
        {
          "internalType": "uint8",
          "name": "",
          "type": "uint8"
        }
      ],
      "stateMutability": "view",
      "type": "function"
    },
    {
      "inputs": [
        {
          "internalType": "address",
          "name": "spender",
          "type": "address"
        },
        {
          "internalType": "uint256",
          "name": "subtractedValue",
          "type": "uint256"
        }
      ],
      "name": "decreaseAllowance",
      "outputs": [
        {
          "internalType": "bool",
          "name": "",
          "type": "bool"
        }
      ],
      "stateMutability": "nonpayable",
      "type": "function"
    },
    {
      "inputs": [
        {
          "internalType": "address",
          "name": "spender",
          "type": "address"
        },
        {
          "internalType": "uint256",
          "name": "addedValue",
          "type": "uint256"
        }
      ],
      "name": "increaseAllowance",
      "outputs": [
        {
          "internalType": "bool",
          "name": "",
          "type": "bool"
        }
      ],
      "stateMutability": "nonpayable",
      "type": "function"
    },
    {
      "inputs": [
        {
          "internalType": "address",
          "name": "user",
          "type": "address"
        },
        {
          "internalType": "uint256",
          "name": "amount",
          "type": "uint256"
        }
      ],
      "name": "mint",
      "outputs": [],
      "stateMutability": "nonpayable",
      "type": "function"
    },
    {
      "inputs": [
        {
          "internalType": "address",
          "name": "user",
          "type": "address"
        },
        {
          "internalType": "uint256",
          "name": "amount",
          "type": "uint256"
        },
        {
          "internalType": "bytes",
          "name": "mintingBlob",
          "type": "bytes"
        }
      ],
      "name": "mintFor",
      "outputs": [],
      "stateMutability": "nonpayable",
      "type": "function"
    },
    {
      "inputs": [],
      "name": "myria",
      "outputs": [
        {
          "internalType": "address",
          "name": "",
          "type": "address"
        }
      ],
      "stateMutability": "view",
      "type": "function"
    },
    {
      "inputs": [],
      "name": "name",
      "outputs": [
        {
          "internalType": "string",
          "name": "",
          "type": "string"
        }
      ],
      "stateMutability": "view",
      "type": "function"
    },
    {
      "inputs": [],
      "name": "owner",
      "outputs": [
        {
          "internalType": "address",
          "name": "",
          "type": "address"
        }
      ],
      "stateMutability": "view",
      "type": "function"
    },
    {
      "inputs": [],
      "name": "renounceOwnership",
      "outputs": [],
      "stateMutability": "nonpayable",
      "type": "function"
    },
    {
      "inputs": [],
      "name": "symbol",
      "outputs": [
        {
          "internalType": "string",
          "name": "",
          "type": "string"
        }
      ],
      "stateMutability": "view",
      "type": "function"
    },
    {
      "inputs": [],
      "name": "totalSupply",
      "outputs": [
        {
          "internalType": "uint256",
          "name": "",
          "type": "uint256"
        }
      ],
      "stateMutability": "view",
      "type": "function"
    },
    {
      "inputs": [
        {
          "internalType": "address",
          "name": "to",
          "type": "address"
        },
        {
          "internalType": "uint256",
          "name": "amount",
          "type": "uint256"
        }
      ],
      "name": "transfer",
      "outputs": [
        {
          "internalType": "bool",
          "name": "",
          "type": "bool"
        }
      ],
      "stateMutability": "nonpayable",
      "type": "function"
    },
    {
      "inputs": [
        {
          "internalType": "address",
          "name": "from",
          "type": "address"
        },
        {
          "internalType": "address",
          "name": "to",
          "type": "address"
        },
        {
          "internalType": "uint256",
          "name": "amount",
          "type": "uint256"
        }
      ],
      "name": "transferFrom",
      "outputs": [
        {
          "internalType": "bool",
          "name": "",
          "type": "bool"
        }
      ],
      "stateMutability": "nonpayable",
      "type": "function"
    },
    {
      "inputs": [
        {
          "internalType": "address",
          "name": "newOwner",
          "type": "address"
        }
      ],
      "name": "transferOwnership",
      "outputs": [],
      "stateMutability": "nonpayable",
      "type": "function"
    }
  ],
  "bytecode": "0x60806040523480156200001157600080fd5b5060405162002596380380620025968339818101604052810190620000379190620004a7565b838184848160039080519060200190620000539291906200036e565b5080600490805190602001906200006c9291906200036e565b5050506200008f620000836200016060201b60201c565b6200016860201b60201c565b80600660006101000a81548173ffffffffffffffffffffffffffffffffffffffff021916908373ffffffffffffffffffffffffffffffffffffffff160217905550600073ffffffffffffffffffffffffffffffffffffffff168273ffffffffffffffffffffffffffffffffffffffff16141562000143576040517f08c379a00000000000000000000000000000000000000000000000000000000081526004016200013a90620005dc565b60405180910390fd5b62000154826200022e60201b60201c565b50505050505062000890565b600033905090565b6000600560009054906101000a900473ffffffffffffffffffffffffffffffffffffffff16905081600560006101000a81548173ffffffffffffffffffffffffffffffffffffffff021916908373ffffffffffffffffffffffffffffffffffffffff1602179055508173ffffffffffffffffffffffffffffffffffffffff168173ffffffffffffffffffffffffffffffffffffffff167f8be0079c531659141344cd1fd0a4f28419497f9722a3daafe3b4186f6b6457e060405160405180910390a35050565b6200023e6200016060201b60201c565b73ffffffffffffffffffffffffffffffffffffffff16620002646200034460201b60201c565b73ffffffffffffffffffffffffffffffffffffffff1614620002bd576040517f08c379a0000000000000000000000000000000000000000000000000000000008152600401620002b490620005fe565b60405180910390fd5b600073ffffffffffffffffffffffffffffffffffffffff168173ffffffffffffffffffffffffffffffffffffffff16141562000330576040517f08c379a00000000000000000000000000000000000000000000000000000000081526004016200032790620005ba565b60405180910390fd5b62000341816200016860201b60201c565b50565b6000600560009054906101000a900473ffffffffffffffffffffffffffffffffffffffff16905090565b8280546200037c90620006fa565b90600052602060002090601f016020900481019282620003a05760008555620003ec565b82601f10620003bb57805160ff1916838001178555620003ec565b82800160010185558215620003ec579182015b82811115620003eb578251825591602001919060010190620003ce565b5b509050620003fb9190620003ff565b5090565b5b808211156200041a57600081600090555060010162000400565b5090565b6000620004356200042f8462000649565b62000620565b9050828152602081018484840111156200044e57600080fd5b6200045b848285620006c4565b509392505050565b600081519050620004748162000876565b92915050565b600082601f8301126200048c57600080fd5b81516200049e8482602086016200041e565b91505092915050565b60008060008060808587031215620004be57600080fd5b6000620004ce8782880162000463565b945050602085015167ffffffffffffffff811115620004ec57600080fd5b620004fa878288016200047a565b935050604085015167ffffffffffffffff8111156200051857600080fd5b62000526878288016200047a565b9250506060620005398782880162000463565b91505092959194509250565b6000620005546026836200067f565b91506200056182620007d5565b604082019050919050565b60006200057b6017836200067f565b9150620005888262000824565b602082019050919050565b6000620005a26020836200067f565b9150620005af826200084d565b602082019050919050565b60006020820190508181036000830152620005d58162000545565b9050919050565b60006020820190508181036000830152620005f7816200056c565b9050919050565b60006020820190508181036000830152620006198162000593565b9050919050565b60006200062c6200063f565b90506200063a828262000730565b919050565b6000604051905090565b600067ffffffffffffffff82111562000667576200066662000795565b5b6200067282620007c4565b9050602081019050919050565b600082825260208201905092915050565b60006200069d82620006a4565b9050919050565b600073ffffffffffffffffffffffffffffffffffffffff82169050919050565b60005b83811015620006e4578082015181840152602081019050620006c7565b83811115620006f4576000848401525b50505050565b600060028204905060018216806200071357607f821691505b602082108114156200072a576200072962000766565b5b50919050565b6200073b82620007c4565b810181811067ffffffffffffffff821117156200075d576200075c62000795565b5b80604052505050565b7f4e487b7100000000000000000000000000000000000000000000000000000000600052602260045260246000fd5b7f4e487b7100000000000000000000000000000000000000000000000000000000600052604160045260246000fd5b6000601f19601f8301169050919050565b7f4f776e61626c653a206e6577206f776e657220697320746865207a65726f206160008201527f6464726573730000000000000000000000000000000000000000000000000000602082015250565b7f4f776e6572206d757374206e6f7420626520656d707479000000000000000000600082015250565b7f4f776e61626c653a2063616c6c6572206973206e6f7420746865206f776e6572600082015250565b620008818162000690565b81146200088d57600080fd5b50565b611cf680620008a06000396000f3fe608060405234801561001057600080fd5b50600436106101155760003560e01c806366bf33be116100a257806395d89b411161007157806395d89b41146102e2578063a457c2d714610300578063a9059cbb14610330578063dd62ed3e14610360578063f2fde38b1461039057610115565b806366bf33be1461025a57806370a082311461028a578063715018a6146102ba5780638da5cb5b146102c457610115565b806319ee6e3f116100e957806319ee6e3f146101a457806323b872dd146101c0578063313ce567146101f0578063395093511461020e57806340c10f191461023e57610115565b806256829e1461011a57806306fdde0314610138578063095ea7b31461015657806318160ddd14610186575b600080fd5b6101226103ac565b60405161012f91906115af565b60405180910390f35b6101406103d2565b60405161014d9190611630565b60405180910390f35b610170600480360381019061016b91906112af565b610464565b60405161017d91906115f3565b60405180910390f35b61018e610487565b60405161019b91906117b2565b60405180910390f35b6101be60048036038101906101b991906112eb565b610491565b005b6101da60048036038101906101d59190611260565b6105a7565b6040516101e791906115f3565b60405180910390f35b6101f86105d6565b60405161020591906117cd565b60405180910390f35b610228600480360381019061022391906112af565b6105df565b60405161023591906115f3565b60405180910390f35b610258600480360381019061025391906112af565b610616565b005b610274600480360381019061026f9190611357565b610624565b604051610281919061160e565b60405180910390f35b6102a4600480360381019061029f91906111fb565b6106c4565b6040516102b191906117b2565b60405180910390f35b6102c261070c565b005b6102cc610794565b6040516102d991906115af565b60405180910390f35b6102ea6107be565b6040516102f79190611630565b60405180910390f35b61031a600480360381019061031591906112af565b610850565b60405161032791906115f3565b60405180910390f35b61034a600480360381019061034591906112af565b6108c7565b60405161035791906115f3565b60405180910390f35b61037a60048036038101906103759190611224565b6108ea565b60405161038791906117b2565b60405180910390f35b6103aa60048036038101906103a591906111fb565b610971565b005b600660009054906101000a900473ffffffffffffffffffffffffffffffffffffffff1681565b6060600380546103e1906118fe565b80601f016020809104026020016040519081016040528092919081815260200182805461040d906118fe565b801561045a5780601f1061042f5761010080835404028352916020019161045a565b820191906000526020600020905b81548152906001019060200180831161043d57829003601f168201915b5050505050905090565b60008061046f610a69565b905061047c818585610a71565b600191505092915050565b6000600254905090565b600660009054906101000a900473ffffffffffffffffffffffffffffffffffffffff1673ffffffffffffffffffffffffffffffffffffffff163373ffffffffffffffffffffffffffffffffffffffff16148061051f57506104f0610794565b73ffffffffffffffffffffffffffffffffffffffff163373ffffffffffffffffffffffffffffffffffffffff16145b61055e576040517f08c379a000000000000000000000000000000000000000000000000000000000815260040161055590611712565b60405180910390fd5b6105688484610c3c565b7f8d1457c1d60a6987eabbac898a50d8d7c81ba604c563663d2807027a4b07905484846040516105999291906115ca565b60405180910390a150505050565b6000806105b2610a69565b90506105bf858285610c4a565b6105ca858585610cd6565b60019150509392505050565b60006012905090565b6000806105ea610a69565b905061060b8185856105fc85896108ea565b6106069190611820565b610a71565b600191505092915050565b6106208282610f57565b5050565b60076020528060005260406000206000915090508054610643906118fe565b80601f016020809104026020016040519081016040528092919081815260200182805461066f906118fe565b80156106bc5780601f10610691576101008083540402835291602001916106bc565b820191906000526020600020905b81548152906001019060200180831161069f57829003601f168201915b505050505081565b60008060008373ffffffffffffffffffffffffffffffffffffffff1673ffffffffffffffffffffffffffffffffffffffff168152602001908152602001600020549050919050565b610714610a69565b73ffffffffffffffffffffffffffffffffffffffff16610732610794565b73ffffffffffffffffffffffffffffffffffffffff1614610788576040517f08c379a000000000000000000000000000000000000000000000000000000000815260040161077f906116f2565b60405180910390fd5b61079260006110b7565b565b6000600560009054906101000a900473ffffffffffffffffffffffffffffffffffffffff16905090565b6060600480546107cd906118fe565b80601f01602080910402602001604051908101604052809291908181526020018280546107f9906118fe565b80156108465780601f1061081b57610100808354040283529160200191610846565b820191906000526020600020905b81548152906001019060200180831161082957829003601f168201915b5050505050905090565b60008061085b610a69565b9050600061086982866108ea565b9050838110156108ae576040517f08c379a00000000000000000000000000000000000000000000000000000000081526004016108a590611772565b60405180910390fd5b6108bb8286868403610a71565b60019250505092915050565b6000806108d2610a69565b90506108df818585610cd6565b600191505092915050565b6000600160008473ffffffffffffffffffffffffffffffffffffffff1673ffffffffffffffffffffffffffffffffffffffff16815260200190815260200160002060008373ffffffffffffffffffffffffffffffffffffffff1673ffffffffffffffffffffffffffffffffffffffff16815260200190815260200160002054905092915050565b610979610a69565b73ffffffffffffffffffffffffffffffffffffffff16610997610794565b73ffffffffffffffffffffffffffffffffffffffff16146109ed576040517f08c379a00000000000000000000000000000000000000000000000000000000081526004016109e4906116f2565b60405180910390fd5b600073ffffffffffffffffffffffffffffffffffffffff168173ffffffffffffffffffffffffffffffffffffffff161415610a5d576040517f08c379a0000000000000000000000000000000000000000000000000000000008152600401610a5490611672565b60405180910390fd5b610a66816110b7565b50565b600033905090565b600073ffffffffffffffffffffffffffffffffffffffff168373ffffffffffffffffffffffffffffffffffffffff161415610ae1576040517f08c379a0000000000000000000000000000000000000000000000000000000008152600401610ad890611752565b60405180910390fd5b600073ffffffffffffffffffffffffffffffffffffffff168273ffffffffffffffffffffffffffffffffffffffff161415610b51576040517f08c379a0000000000000000000000000000000000000000000000000000000008152600401610b4890611692565b60405180910390fd5b80600160008573ffffffffffffffffffffffffffffffffffffffff1673ffffffffffffffffffffffffffffffffffffffff16815260200190815260200160002060008473ffffffffffffffffffffffffffffffffffffffff1673ffffffffffffffffffffffffffffffffffffffff168152602001908152602001600020819055508173ffffffffffffffffffffffffffffffffffffffff168373ffffffffffffffffffffffffffffffffffffffff167f8c5be1e5ebec7d5bd14f71427d1e84f3dd0314c0f7b2291e5b200ac8c7c3b92583604051610c2f91906117b2565b60405180910390a3505050565b610c468282610f57565b5050565b6000610c5684846108ea565b90507fffffffffffffffffffffffffffffffffffffffffffffffffffffffffffffffff8114610cd05781811015610cc2576040517f08c379a0000000000000000000000000000000000000000000000000000000008152600401610cb9906116b2565b60405180910390fd5b610ccf8484848403610a71565b5b50505050565b600073ffffffffffffffffffffffffffffffffffffffff168373ffffffffffffffffffffffffffffffffffffffff161415610d46576040517f08c379a0000000000000000000000000000000000000000000000000000000008152600401610d3d90611732565b60405180910390fd5b600073ffffffffffffffffffffffffffffffffffffffff168273ffffffffffffffffffffffffffffffffffffffff161415610db6576040517f08c379a0000000000000000000000000000000000000000000000000000000008152600401610dad90611652565b60405180910390fd5b610dc183838361117d565b60008060008573ffffffffffffffffffffffffffffffffffffffff1673ffffffffffffffffffffffffffffffffffffffff16815260200190815260200160002054905081811015610e47576040517f08c379a0000000000000000000000000000000000000000000000000000000008152600401610e3e906116d2565b60405180910390fd5b8181036000808673ffffffffffffffffffffffffffffffffffffffff1673ffffffffffffffffffffffffffffffffffffffff16815260200190815260200160002081905550816000808573ffffffffffffffffffffffffffffffffffffffff1673ffffffffffffffffffffffffffffffffffffffff1681526020019081526020016000206000828254610eda9190611820565b925050819055508273ffffffffffffffffffffffffffffffffffffffff168473ffffffffffffffffffffffffffffffffffffffff167fddf252ad1be2c89b69c2b068fc378daa952ba7f163c4a11628f55a4df523b3ef84604051610f3e91906117b2565b60405180910390a3610f51848484611182565b50505050565b600073ffffffffffffffffffffffffffffffffffffffff168273ffffffffffffffffffffffffffffffffffffffff161415610fc7576040517f08c379a0000000000000000000000000000000000000000000000000000000008152600401610fbe90611792565b60405180910390fd5b610fd36000838361117d565b8060026000828254610fe59190611820565b92505081905550806000808473ffffffffffffffffffffffffffffffffffffffff1673ffffffffffffffffffffffffffffffffffffffff168152602001908152602001600020600082825461103a9190611820565b925050819055508173ffffffffffffffffffffffffffffffffffffffff16600073ffffffffffffffffffffffffffffffffffffffff167fddf252ad1be2c89b69c2b068fc378daa952ba7f163c4a11628f55a4df523b3ef8360405161109f91906117b2565b60405180910390a36110b360008383611182565b5050565b6000600560009054906101000a900473ffffffffffffffffffffffffffffffffffffffff16905081600560006101000a81548173ffffffffffffffffffffffffffffffffffffffff021916908373ffffffffffffffffffffffffffffffffffffffff1602179055508173ffffffffffffffffffffffffffffffffffffffff168173ffffffffffffffffffffffffffffffffffffffff167f8be0079c531659141344cd1fd0a4f28419497f9722a3daafe3b4186f6b6457e060405160405180910390a35050565b505050565b505050565b60008135905061119681611c92565b92915050565b60008083601f8401126111ae57600080fd5b8235905067ffffffffffffffff8111156111c757600080fd5b6020830191508360018202830111156111df57600080fd5b9250929050565b6000813590506111f581611ca9565b92915050565b60006020828403121561120d57600080fd5b600061121b84828501611187565b91505092915050565b6000806040838503121561123757600080fd5b600061124585828601611187565b925050602061125685828601611187565b9150509250929050565b60008060006060848603121561127557600080fd5b600061128386828701611187565b935050602061129486828701611187565b92505060406112a5868287016111e6565b9150509250925092565b600080604083850312156112c257600080fd5b60006112d085828601611187565b92505060206112e1858286016111e6565b9150509250929050565b6000806000806060858703121561130157600080fd5b600061130f87828801611187565b9450506020611320878288016111e6565b935050604085013567ffffffffffffffff81111561133d57600080fd5b6113498782880161119c565b925092505092959194509250565b60006020828403121561136957600080fd5b6000611377848285016111e6565b91505092915050565b61138981611876565b82525050565b61139881611888565b82525050565b60006113a9826117e8565b6113b381856117fe565b93506113c38185602086016118cb565b6113cc8161198e565b840191505092915050565b60006113e2826117f3565b6113ec818561180f565b93506113fc8185602086016118cb565b6114058161198e565b840191505092915050565b600061141d60238361180f565b91506114288261199f565b604082019050919050565b600061144060268361180f565b915061144b826119ee565b604082019050919050565b600061146360228361180f565b915061146e82611a3d565b604082019050919050565b6000611486601d8361180f565b915061149182611a8c565b602082019050919050565b60006114a960268361180f565b91506114b482611ab5565b604082019050919050565b60006114cc60208361180f565b91506114d782611b04565b602082019050919050565b60006114ef602d8361180f565b91506114fa82611b2d565b604082019050919050565b600061151260258361180f565b915061151d82611b7c565b604082019050919050565b600061153560248361180f565b915061154082611bcb565b604082019050919050565b600061155860258361180f565b915061156382611c1a565b604082019050919050565b600061157b601f8361180f565b915061158682611c69565b602082019050919050565b61159a816118b4565b82525050565b6115a9816118be565b82525050565b60006020820190506115c46000830184611380565b92915050565b60006040820190506115df6000830185611380565b6115ec6020830184611591565b9392505050565b6000602082019050611608600083018461138f565b92915050565b60006020820190508181036000830152611628818461139e565b905092915050565b6000602082019050818103600083015261164a81846113d7565b905092915050565b6000602082019050818103600083015261166b81611410565b9050919050565b6000602082019050818103600083015261168b81611433565b9050919050565b600060208201905081810360008301526116ab81611456565b9050919050565b600060208201905081810360008301526116cb81611479565b9050919050565b600060208201905081810360008301526116eb8161149c565b9050919050565b6000602082019050818103600083015261170b816114bf565b9050919050565b6000602082019050818103600083015261172b816114e2565b9050919050565b6000602082019050818103600083015261174b81611505565b9050919050565b6000602082019050818103600083015261176b81611528565b9050919050565b6000602082019050818103600083015261178b8161154b565b9050919050565b600060208201905081810360008301526117ab8161156e565b9050919050565b60006020820190506117c76000830184611591565b92915050565b60006020820190506117e260008301846115a0565b92915050565b600081519050919050565b600081519050919050565b600082825260208201905092915050565b600082825260208201905092915050565b600061182b826118b4565b9150611836836118b4565b9250827fffffffffffffffffffffffffffffffffffffffffffffffffffffffffffffffff0382111561186b5761186a611930565b5b828201905092915050565b600061188182611894565b9050919050565b60008115159050919050565b600073ffffffffffffffffffffffffffffffffffffffff82169050919050565b6000819050919050565b600060ff82169050919050565b60005b838110156118e95780820151818401526020810190506118ce565b838111156118f8576000848401525b50505050565b6000600282049050600182168061191657607f821691505b6020821081141561192a5761192961195f565b5b50919050565b7f4e487b7100000000000000000000000000000000000000000000000000000000600052601160045260246000fd5b7f4e487b7100000000000000000000000000000000000000000000000000000000600052602260045260246000fd5b6000601f19601f8301169050919050565b7f45524332303a207472616e7366657220746f20746865207a65726f206164647260008201527f6573730000000000000000000000000000000000000000000000000000000000602082015250565b7f4f776e61626c653a206e6577206f776e657220697320746865207a65726f206160008201527f6464726573730000000000000000000000000000000000000000000000000000602082015250565b7f45524332303a20617070726f766520746f20746865207a65726f20616464726560008201527f7373000000000000000000000000000000000000000000000000000000000000602082015250565b7f45524332303a20696e73756666696369656e7420616c6c6f77616e6365000000600082015250565b7f45524332303a207472616e7366657220616d6f756e742065786365656473206260008201527f616c616e63650000000000000000000000000000000000000000000000000000602082015250565b7f4f776e61626c653a2063616c6c6572206973206e6f7420746865206f776e6572600082015250565b7f46756e6374696f6e2063616e206f6e6c792062652063616c6c6564206279206f60008201527f776e6572206f72206d7972696100000000000000000000000000000000000000602082015250565b7f45524332303a207472616e736665722066726f6d20746865207a65726f20616460008201527f6472657373000000000000000000000000000000000000000000000000000000602082015250565b7f45524332303a20617070726f76652066726f6d20746865207a65726f2061646460008201527f7265737300000000000000000000000000000000000000000000000000000000602082015250565b7f45524332303a2064656372656173656420616c6c6f77616e63652062656c6f7760008201527f207a65726f000000000000000000000000000000000000000000000000000000602082015250565b7f45524332303a206d696e7420746f20746865207a65726f206164647265737300600082015250565b611c9b81611876565b8114611ca657600080fd5b50565b611cb2816118b4565b8114611cbd57600080fd5b5056fea2646970667358221220d31b8f4f98520bf75edd52332cfc7d5e1548b97565c235ee323a8d3f4b4ae08964736f6c63430008010033",
  "linkReferences": {},
  "deployedLinkReferences": {}
}