{
  "_format": "hh-sol-artifact-1",
  "contractName": "PureNFT",
  "sourceName": "contracts/PureNFT.sol",
  "abi": [
    {
      "inputs": [
        {
          "internalType": "string",
          "name": "baseUri",
          "type": "string"
        }
      ],
      "stateMutability": "nonpayable",
      "type": "constructor"
    },
    {
      "anonymous": false,
      "inputs": [
        {
          "indexed": true,
          "internalType": "address",
          "name": "owner",
          "type": "address"
        },
        {
          "indexed": true,
          "internalType": "address",
          "name": "approved",
          "type": "address"
        },
        {
          "indexed": true,
          "internalType": "uint256",
          "name": "tokenId",
          "type": "uint256"
        }
      ],
      "name": "Approval",
      "type": "event"
    },
    {
      "anonymous": false,
      "inputs": [
        {
          "indexed": true,
          "internalType": "address",
          "name": "owner",
          "type": "address"
        },
        {
          "indexed": true,
          "internalType": "address",
          "name": "operator",
          "type": "address"
        },
        {
          "indexed": false,
          "internalType": "bool",
          "name": "approved",
          "type": "bool"
        }
      ],
      "name": "ApprovalForAll",
      "type": "event"
    },
    {
      "anonymous": false,
      "inputs": [
        {
          "indexed": true,
          "internalType": "address",
          "name": "from",
          "type": "address"
        },
        {
          "indexed": true,
          "internalType": "address",
          "name": "to",
          "type": "address"
        },
        {
          "indexed": true,
          "internalType": "uint256",
          "name": "tokenId",
          "type": "uint256"
        }
      ],
      "name": "Transfer",
      "type": "event"
    },
    {
      "inputs": [
        {
          "internalType": "address",
          "name": "to",
          "type": "address"
        },
        {
          "internalType": "uint256",
          "name": "tokenId",
          "type": "uint256"
        }
      ],
      "name": "approve",
      "outputs": [],
      "stateMutability": "nonpayable",
      "type": "function"
    },
    {
      "inputs": [
        {
          "internalType": "address",
          "name": "recipient",
          "type": "address"
        }
      ],
      "name": "awardItem",
      "outputs": [
        {
          "internalType": "uint256",
          "name": "",
          "type": "uint256"
        }
      ],
      "stateMutability": "nonpayable",
      "type": "function"
    },
    {
      "inputs": [
        {
          "internalType": "address",
          "name": "owner",
          "type": "address"
        }
      ],
      "name": "balanceOf",
      "outputs": [
        {
          "internalType": "uint256",
          "name": "",
          "type": "uint256"
        }
      ],
      "stateMutability": "view",
      "type": "function"
    },
    {
      "inputs": [
        {
          "internalType": "uint256",
          "name": "tokenId",
          "type": "uint256"
        }
      ],
      "name": "getApproved",
      "outputs": [
        {
          "internalType": "address",
          "name": "",
          "type": "address"
        }
      ],
      "stateMutability": "view",
      "type": "function"
    },
    {
      "inputs": [
        {
          "internalType": "address",
          "name": "owner",
          "type": "address"
        },
        {
          "internalType": "address",
          "name": "operator",
          "type": "address"
        }
      ],
      "name": "isApprovedForAll",
      "outputs": [
        {
          "internalType": "bool",
          "name": "",
          "type": "bool"
        }
      ],
      "stateMutability": "view",
      "type": "function"
    },
    {
      "inputs": [],
      "name": "name",
      "outputs": [
        {
          "internalType": "string",
          "name": "",
          "type": "string"
        }
      ],
      "stateMutability": "view",
      "type": "function"
    },
    {
      "inputs": [
        {
          "internalType": "uint256",
          "name": "tokenId",
          "type": "uint256"
        }
      ],
      "name": "ownerOf",
      "outputs": [
        {
          "internalType": "address",
          "name": "",
          "type": "address"
        }
      ],
      "stateMutability": "view",
      "type": "function"
    },
    {
      "inputs": [
        {
          "internalType": "address",
          "name": "from",
          "type": "address"
        },
        {
          "internalType": "address",
          "name": "to",
          "type": "address"
        },
        {
          "internalType": "uint256",
          "name": "tokenId",
          "type": "uint256"
        }
      ],
      "name": "safeTransferFrom",
      "outputs": [],
      "stateMutability": "nonpayable",
      "type": "function"
    },
    {
      "inputs": [
        {
          "internalType": "address",
          "name": "from",
          "type": "address"
        },
        {
          "internalType": "address",
          "name": "to",
          "type": "address"
        },
        {
          "internalType": "uint256",
          "name": "tokenId",
          "type": "uint256"
        },
        {
          "internalType": "bytes",
          "name": "_data",
          "type": "bytes"
        }
      ],
      "name": "safeTransferFrom",
      "outputs": [],
      "stateMutability": "nonpayable",
      "type": "function"
    },
    {
      "inputs": [
        {
          "internalType": "address",
          "name": "operator",
          "type": "address"
        },
        {
          "internalType": "bool",
          "name": "approved",
          "type": "bool"
        }
      ],
      "name": "setApprovalForAll",
      "outputs": [],
      "stateMutability": "nonpayable",
      "type": "function"
    },
    {
      "inputs": [
        {
          "internalType": "bytes4",
          "name": "interfaceId",
          "type": "bytes4"
        }
      ],
      "name": "supportsInterface",
      "outputs": [
        {
          "internalType": "bool",
          "name": "",
          "type": "bool"
        }
      ],
      "stateMutability": "view",
      "type": "function"
    },
    {
      "inputs": [],
      "name": "symbol",
      "outputs": [
        {
          "internalType": "string",
          "name": "",
          "type": "string"
        }
      ],
      "stateMutability": "view",
      "type": "function"
    },
    {
      "inputs": [
        {
          "internalType": "uint256",
          "name": "tokenId",
          "type": "uint256"
        }
      ],
      "name": "tokenURI",
      "outputs": [
        {
          "internalType": "string",
          "name": "",
          "type": "string"
        }
      ],
      "stateMutability": "view",
      "type": "function"
    },
    {
      "inputs": [
        {
          "internalType": "address",
          "name": "from",
          "type": "address"
        },
        {
          "internalType": "address",
          "name": "to",
          "type": "address"
        },
        {
          "internalType": "uint256",
          "name": "tokenId",
          "type": "uint256"
        }
      ],
      "name": "transferFrom",
      "outputs": [],
      "stateMutability": "nonpayable",
      "type": "function"
    }
  ],
  "bytecode": "0x60806040523480156200001157600080fd5b5060405162002b6e38038062002b6e833981810160405281019062000037919062000219565b6040518060400160405280600781526020017f507572654e4654000000000000000000000000000000000000000000000000008152506040518060400160405280600281526020017f504e0000000000000000000000000000000000000000000000000000000000008152508160009080519060200190620000bb929190620000f7565b508060019080519060200190620000d4929190620000f7565b5050508060079080519060200190620000ef929190620000f7565b5050620003ce565b8280546200010590620002f3565b90600052602060002090601f01602090048101928262000129576000855562000175565b82601f106200014457805160ff191683800117855562000175565b8280016001018555821562000175579182015b828111156200017457825182559160200191906001019062000157565b5b50905062000184919062000188565b5090565b5b80821115620001a357600081600090555060010162000189565b5090565b6000620001be620001b88462000287565b6200025e565b905082815260208101848484011115620001d757600080fd5b620001e4848285620002bd565b509392505050565b600082601f830112620001fe57600080fd5b815162000210848260208601620001a7565b91505092915050565b6000602082840312156200022c57600080fd5b600082015167ffffffffffffffff8111156200024757600080fd5b6200025584828501620001ec565b91505092915050565b60006200026a6200027d565b905062000278828262000329565b919050565b6000604051905090565b600067ffffffffffffffff821115620002a557620002a46200038e565b5b620002b082620003bd565b9050602081019050919050565b60005b83811015620002dd578082015181840152602081019050620002c0565b83811115620002ed576000848401525b50505050565b600060028204905060018216806200030c57607f821691505b602082108114156200032357620003226200035f565b5b50919050565b6200033482620003bd565b810181811067ffffffffffffffff821117156200035657620003556200038e565b5b80604052505050565b7f4e487b7100000000000000000000000000000000000000000000000000000000600052602260045260246000fd5b7f4e487b7100000000000000000000000000000000000000000000000000000000600052604160045260246000fd5b6000601f19601f8301169050919050565b61279080620003de6000396000f3fe608060405234801561001057600080fd5b50600436106100ea5760003560e01c806370a082311161008c578063b88d4fde11610066578063b88d4fde1461025b578063c87b56dd14610277578063e985e9c5146102a7578063f2fb2120146102d7576100ea565b806370a08231146101f157806395d89b4114610221578063a22cb4651461023f576100ea565b8063095ea7b3116100c8578063095ea7b31461016d57806323b872dd1461018957806342842e0e146101a55780636352211e146101c1576100ea565b806301ffc9a7146100ef57806306fdde031461011f578063081812fc1461013d575b600080fd5b61010960048036038101906101049190611992565b610307565b6040516101169190611d52565b60405180910390f35b6101276103e9565b6040516101349190611d6d565b60405180910390f35b610157600480360381019061015291906119e4565b61047b565b6040516101649190611ceb565b60405180910390f35b61018760048036038101906101829190611956565b610500565b005b6101a3600480360381019061019e9190611850565b610618565b005b6101bf60048036038101906101ba9190611850565b610678565b005b6101db60048036038101906101d691906119e4565b610698565b6040516101e89190611ceb565b60405180910390f35b61020b600480360381019061020691906117eb565b61074a565b6040516102189190611f4f565b60405180910390f35b610229610802565b6040516102369190611d6d565b60405180910390f35b6102596004803603810190610254919061191a565b610894565b005b6102756004803603810190610270919061189f565b6108aa565b005b610291600480360381019061028c91906119e4565b61090c565b60405161029e9190611d6d565b60405180910390f35b6102c160048036038101906102bc9190611814565b6109b3565b6040516102ce9190611d52565b60405180910390f35b6102f160048036038101906102ec91906117eb565b610a47565b6040516102fe9190611f4f565b60405180910390f35b60007f80ac58cd000000000000000000000000000000000000000000000000000000007bffffffffffffffffffffffffffffffffffffffffffffffffffffffff1916827bffffffffffffffffffffffffffffffffffffffffffffffffffffffff191614806103d257507f5b5e139f000000000000000000000000000000000000000000000000000000007bffffffffffffffffffffffffffffffffffffffffffffffffffffffff1916827bffffffffffffffffffffffffffffffffffffffffffffffffffffffff1916145b806103e257506103e182610a74565b5b9050919050565b6060600080546103f890612174565b80601f016020809104026020016040519081016040528092919081815260200182805461042490612174565b80156104715780601f1061044657610100808354040283529160200191610471565b820191906000526020600020905b81548152906001019060200180831161045457829003601f168201915b5050505050905090565b600061048682610ade565b6104c5576040517f08c379a00000000000000000000000000000000000000000000000000000000081526004016104bc90611ecf565b60405180910390fd5b6004600083815260200190815260200160002060009054906101000a900473ffffffffffffffffffffffffffffffffffffffff169050919050565b600061050b82610698565b90508073ffffffffffffffffffffffffffffffffffffffff168373ffffffffffffffffffffffffffffffffffffffff16141561057c576040517f08c379a000000000000000000000000000000000000000000000000000000000815260040161057390611f0f565b60405180910390fd5b8073ffffffffffffffffffffffffffffffffffffffff1661059b610b4a565b73ffffffffffffffffffffffffffffffffffffffff1614806105ca57506105c9816105c4610b4a565b6109b3565b5b610609576040517f08c379a000000000000000000000000000000000000000000000000000000000815260040161060090611e4f565b60405180910390fd5b6106138383610b52565b505050565b610629610623610b4a565b82610c0b565b610668576040517f08c379a000000000000000000000000000000000000000000000000000000000815260040161065f90611f2f565b60405180910390fd5b610673838383610ce9565b505050565b610693838383604051806020016040528060008152506108aa565b505050565b6000806002600084815260200190815260200160002060009054906101000a900473ffffffffffffffffffffffffffffffffffffffff169050600073ffffffffffffffffffffffffffffffffffffffff168173ffffffffffffffffffffffffffffffffffffffff161415610741576040517f08c379a000000000000000000000000000000000000000000000000000000000815260040161073890611e8f565b60405180910390fd5b80915050919050565b60008073ffffffffffffffffffffffffffffffffffffffff168273ffffffffffffffffffffffffffffffffffffffff1614156107bb576040517f08c379a00000000000000000000000000000000000000000000000000000000081526004016107b290611e6f565b60405180910390fd5b600360008373ffffffffffffffffffffffffffffffffffffffff1673ffffffffffffffffffffffffffffffffffffffff168152602001908152602001600020549050919050565b60606001805461081190612174565b80601f016020809104026020016040519081016040528092919081815260200182805461083d90612174565b801561088a5780601f1061085f5761010080835404028352916020019161088a565b820191906000526020600020905b81548152906001019060200180831161086d57829003601f168201915b5050505050905090565b6108a661089f610b4a565b8383610f50565b5050565b6108bb6108b5610b4a565b83610c0b565b6108fa576040517f08c379a00000000000000000000000000000000000000000000000000000000081526004016108f190611f2f565b60405180910390fd5b610906848484846110bd565b50505050565b606061091782610ade565b610956576040517f08c379a000000000000000000000000000000000000000000000000000000000815260040161094d90611eef565b60405180910390fd5b6000610960611119565b9050600081511161098057604051806020016040528060008152506109ab565b8061098a846111ab565b60405160200161099b929190611cc7565b6040516020818303038152906040525b915050919050565b6000600560008473ffffffffffffffffffffffffffffffffffffffff1673ffffffffffffffffffffffffffffffffffffffff16815260200190815260200160002060008373ffffffffffffffffffffffffffffffffffffffff1673ffffffffffffffffffffffffffffffffffffffff16815260200190815260200160002060009054906101000a900460ff16905092915050565b6000610a536006611358565b6000610a5f600661136e565b9050610a6b838261137c565b80915050919050565b60007f01ffc9a7000000000000000000000000000000000000000000000000000000007bffffffffffffffffffffffffffffffffffffffffffffffffffffffff1916827bffffffffffffffffffffffffffffffffffffffffffffffffffffffff1916149050919050565b60008073ffffffffffffffffffffffffffffffffffffffff166002600084815260200190815260200160002060009054906101000a900473ffffffffffffffffffffffffffffffffffffffff1673ffffffffffffffffffffffffffffffffffffffff1614159050919050565b600033905090565b816004600083815260200190815260200160002060006101000a81548173ffffffffffffffffffffffffffffffffffffffff021916908373ffffffffffffffffffffffffffffffffffffffff160217905550808273ffffffffffffffffffffffffffffffffffffffff16610bc583610698565b73ffffffffffffffffffffffffffffffffffffffff167f8c5be1e5ebec7d5bd14f71427d1e84f3dd0314c0f7b2291e5b200ac8c7c3b92560405160405180910390a45050565b6000610c1682610ade565b610c55576040517f08c379a0000000000000000000000000000000000000000000000000000000008152600401610c4c90611e2f565b60405180910390fd5b6000610c6083610698565b90508073ffffffffffffffffffffffffffffffffffffffff168473ffffffffffffffffffffffffffffffffffffffff161480610ca25750610ca181856109b3565b5b80610ce057508373ffffffffffffffffffffffffffffffffffffffff16610cc88461047b565b73ffffffffffffffffffffffffffffffffffffffff16145b91505092915050565b8273ffffffffffffffffffffffffffffffffffffffff16610d0982610698565b73ffffffffffffffffffffffffffffffffffffffff1614610d5f576040517f08c379a0000000000000000000000000000000000000000000000000000000008152600401610d5690611daf565b60405180910390fd5b600073ffffffffffffffffffffffffffffffffffffffff168273ffffffffffffffffffffffffffffffffffffffff161415610dcf576040517f08c379a0000000000000000000000000000000000000000000000000000000008152600401610dc690611def565b60405180910390fd5b610dda838383611556565b610de5600082610b52565b6001600360008573ffffffffffffffffffffffffffffffffffffffff1673ffffffffffffffffffffffffffffffffffffffff1681526020019081526020016000206000828254610e35919061208a565b925050819055506001600360008473ffffffffffffffffffffffffffffffffffffffff1673ffffffffffffffffffffffffffffffffffffffff1681526020019081526020016000206000828254610e8c9190612003565b92505081905550816002600083815260200190815260200160002060006101000a81548173ffffffffffffffffffffffffffffffffffffffff021916908373ffffffffffffffffffffffffffffffffffffffff160217905550808273ffffffffffffffffffffffffffffffffffffffff168473ffffffffffffffffffffffffffffffffffffffff167fddf252ad1be2c89b69c2b068fc378daa952ba7f163c4a11628f55a4df523b3ef60405160405180910390a4610f4b83838361155b565b505050565b8173ffffffffffffffffffffffffffffffffffffffff168373ffffffffffffffffffffffffffffffffffffffff161415610fbf576040517f08c379a0000000000000000000000000000000000000000000000000000000008152600401610fb690611e0f565b60405180910390fd5b80600560008573ffffffffffffffffffffffffffffffffffffffff1673ffffffffffffffffffffffffffffffffffffffff16815260200190815260200160002060008473ffffffffffffffffffffffffffffffffffffffff1673ffffffffffffffffffffffffffffffffffffffff16815260200190815260200160002060006101000a81548160ff0219169083151502179055508173ffffffffffffffffffffffffffffffffffffffff168373ffffffffffffffffffffffffffffffffffffffff167f17307eab39ab6107e8899845ad3d59bd9653f200f220920489ca2b5937696c31836040516110b09190611d52565b60405180910390a3505050565b6110c8848484610ce9565b6110d484848484611560565b611113576040517f08c379a000000000000000000000000000000000000000000000000000000000815260040161110a90611d8f565b60405180910390fd5b50505050565b60606007805461112890612174565b80601f016020809104026020016040519081016040528092919081815260200182805461115490612174565b80156111a15780601f10611176576101008083540402835291602001916111a1565b820191906000526020600020905b81548152906001019060200180831161118457829003601f168201915b5050505050905090565b606060008214156111f3576040518060400160405280600181526020017f30000000000000000000000000000000000000000000000000000000000000008152509050611353565b600082905060005b6000821461122557808061120e906121d7565b915050600a8261121e9190612059565b91506111fb565b60008167ffffffffffffffff811115611267577f4e487b7100000000000000000000000000000000000000000000000000000000600052604160045260246000fd5b6040519080825280601f01601f1916602001820160405280156112995781602001600182028036833780820191505090505b5090505b6000851461134c576001826112b2919061208a565b9150600a856112c19190612220565b60306112cd9190612003565b60f81b818381518110611309577f4e487b7100000000000000000000000000000000000000000000000000000000600052603260045260246000fd5b60200101907effffffffffffffffffffffffffffffffffffffffffffffffffffffffffffff1916908160001a905350600a856113459190612059565b945061129d565b8093505050505b919050565b6001816000016000828254019250508190555050565b600081600001549050919050565b600073ffffffffffffffffffffffffffffffffffffffff168273ffffffffffffffffffffffffffffffffffffffff1614156113ec576040517f08c379a00000000000000000000000000000000000000000000000000000000081526004016113e390611eaf565b60405180910390fd5b6113f581610ade565b15611435576040517f08c379a000000000000000000000000000000000000000000000000000000000815260040161142c90611dcf565b60405180910390fd5b61144160008383611556565b6001600360008473ffffffffffffffffffffffffffffffffffffffff1673ffffffffffffffffffffffffffffffffffffffff16815260200190815260200160002060008282546114919190612003565b92505081905550816002600083815260200190815260200160002060006101000a81548173ffffffffffffffffffffffffffffffffffffffff021916908373ffffffffffffffffffffffffffffffffffffffff160217905550808273ffffffffffffffffffffffffffffffffffffffff16600073ffffffffffffffffffffffffffffffffffffffff167fddf252ad1be2c89b69c2b068fc378daa952ba7f163c4a11628f55a4df523b3ef60405160405180910390a46115526000838361155b565b5050565b505050565b505050565b60006115818473ffffffffffffffffffffffffffffffffffffffff166116f7565b156116ea578373ffffffffffffffffffffffffffffffffffffffff1663150b7a026115aa610b4a565b8786866040518563ffffffff1660e01b81526004016115cc9493929190611d06565b602060405180830381600087803b1580156115e657600080fd5b505af192505050801561161757506040513d601f19601f8201168201806040525081019061161491906119bb565b60015b61169a573d8060008114611647576040519150601f19603f3d011682016040523d82523d6000602084013e61164c565b606091505b50600081511415611692576040517f08c379a000000000000000000000000000000000000000000000000000000000815260040161168990611d8f565b60405180910390fd5b805181602001fd5b63150b7a0260e01b7bffffffffffffffffffffffffffffffffffffffffffffffffffffffff1916817bffffffffffffffffffffffffffffffffffffffffffffffffffffffff1916149150506116ef565b600190505b949350505050565b6000808273ffffffffffffffffffffffffffffffffffffffff163b119050919050565b600061172d61172884611f8f565b611f6a565b90508281526020810184848401111561174557600080fd5b611750848285612132565b509392505050565b600081359050611767816126fe565b92915050565b60008135905061177c81612715565b92915050565b6000813590506117918161272c565b92915050565b6000815190506117a68161272c565b92915050565b600082601f8301126117bd57600080fd5b81356117cd84826020860161171a565b91505092915050565b6000813590506117e581612743565b92915050565b6000602082840312156117fd57600080fd5b600061180b84828501611758565b91505092915050565b6000806040838503121561182757600080fd5b600061183585828601611758565b925050602061184685828601611758565b9150509250929050565b60008060006060848603121561186557600080fd5b600061187386828701611758565b935050602061188486828701611758565b9250506040611895868287016117d6565b9150509250925092565b600080600080608085870312156118b557600080fd5b60006118c387828801611758565b94505060206118d487828801611758565b93505060406118e5878288016117d6565b925050606085013567ffffffffffffffff81111561190257600080fd5b61190e878288016117ac565b91505092959194509250565b6000806040838503121561192d57600080fd5b600061193b85828601611758565b925050602061194c8582860161176d565b9150509250929050565b6000806040838503121561196957600080fd5b600061197785828601611758565b9250506020611988858286016117d6565b9150509250929050565b6000602082840312156119a457600080fd5b60006119b284828501611782565b91505092915050565b6000602082840312156119cd57600080fd5b60006119db84828501611797565b91505092915050565b6000602082840312156119f657600080fd5b6000611a04848285016117d6565b91505092915050565b611a16816120be565b82525050565b611a25816120d0565b82525050565b6000611a3682611fc0565b611a408185611fd6565b9350611a50818560208601612141565b611a598161230d565b840191505092915050565b6000611a6f82611fcb565b611a798185611fe7565b9350611a89818560208601612141565b611a928161230d565b840191505092915050565b6000611aa882611fcb565b611ab28185611ff8565b9350611ac2818560208601612141565b80840191505092915050565b6000611adb603283611fe7565b9150611ae68261231e565b604082019050919050565b6000611afe602583611fe7565b9150611b098261236d565b604082019050919050565b6000611b21601c83611fe7565b9150611b2c826123bc565b602082019050919050565b6000611b44602483611fe7565b9150611b4f826123e5565b604082019050919050565b6000611b67601983611fe7565b9150611b7282612434565b602082019050919050565b6000611b8a602c83611fe7565b9150611b958261245d565b604082019050919050565b6000611bad603883611fe7565b9150611bb8826124ac565b604082019050919050565b6000611bd0602a83611fe7565b9150611bdb826124fb565b604082019050919050565b6000611bf3602983611fe7565b9150611bfe8261254a565b604082019050919050565b6000611c16602083611fe7565b9150611c2182612599565b602082019050919050565b6000611c39602c83611fe7565b9150611c44826125c2565b604082019050919050565b6000611c5c602f83611fe7565b9150611c6782612611565b604082019050919050565b6000611c7f602183611fe7565b9150611c8a82612660565b604082019050919050565b6000611ca2603183611fe7565b9150611cad826126af565b604082019050919050565b611cc181612128565b82525050565b6000611cd38285611a9d565b9150611cdf8284611a9d565b91508190509392505050565b6000602082019050611d006000830184611a0d565b92915050565b6000608082019050611d1b6000830187611a0d565b611d286020830186611a0d565b611d356040830185611cb8565b8181036060830152611d478184611a2b565b905095945050505050565b6000602082019050611d676000830184611a1c565b92915050565b60006020820190508181036000830152611d878184611a64565b905092915050565b60006020820190508181036000830152611da881611ace565b9050919050565b60006020820190508181036000830152611dc881611af1565b9050919050565b60006020820190508181036000830152611de881611b14565b9050919050565b60006020820190508181036000830152611e0881611b37565b9050919050565b60006020820190508181036000830152611e2881611b5a565b9050919050565b60006020820190508181036000830152611e4881611b7d565b9050919050565b60006020820190508181036000830152611e6881611ba0565b9050919050565b60006020820190508181036000830152611e8881611bc3565b9050919050565b60006020820190508181036000830152611ea881611be6565b9050919050565b60006020820190508181036000830152611ec881611c09565b9050919050565b60006020820190508181036000830152611ee881611c2c565b9050919050565b60006020820190508181036000830152611f0881611c4f565b9050919050565b60006020820190508181036000830152611f2881611c72565b9050919050565b60006020820190508181036000830152611f4881611c95565b9050919050565b6000602082019050611f646000830184611cb8565b92915050565b6000611f74611f85565b9050611f8082826121a6565b919050565b6000604051905090565b600067ffffffffffffffff821115611faa57611fa96122de565b5b611fb38261230d565b9050602081019050919050565b600081519050919050565b600081519050919050565b600082825260208201905092915050565b600082825260208201905092915050565b600081905092915050565b600061200e82612128565b915061201983612128565b9250827fffffffffffffffffffffffffffffffffffffffffffffffffffffffffffffffff0382111561204e5761204d612251565b5b828201905092915050565b600061206482612128565b915061206f83612128565b92508261207f5761207e612280565b5b828204905092915050565b600061209582612128565b91506120a083612128565b9250828210156120b3576120b2612251565b5b828203905092915050565b60006120c982612108565b9050919050565b60008115159050919050565b60007fffffffff0000000000000000000000000000000000000000000000000000000082169050919050565b600073ffffffffffffffffffffffffffffffffffffffff82169050919050565b6000819050919050565b82818337600083830152505050565b60005b8381101561215f578082015181840152602081019050612144565b8381111561216e576000848401525b50505050565b6000600282049050600182168061218c57607f821691505b602082108114156121a05761219f6122af565b5b50919050565b6121af8261230d565b810181811067ffffffffffffffff821117156121ce576121cd6122de565b5b80604052505050565b60006121e282612128565b91507fffffffffffffffffffffffffffffffffffffffffffffffffffffffffffffffff82141561221557612214612251565b5b600182019050919050565b600061222b82612128565b915061223683612128565b92508261224657612245612280565b5b828206905092915050565b7f4e487b7100000000000000000000000000000000000000000000000000000000600052601160045260246000fd5b7f4e487b7100000000000000000000000000000000000000000000000000000000600052601260045260246000fd5b7f4e487b7100000000000000000000000000000000000000000000000000000000600052602260045260246000fd5b7f4e487b7100000000000000000000000000000000000000000000000000000000600052604160045260246000fd5b6000601f19601f8301169050919050565b7f4552433732313a207472616e7366657220746f206e6f6e20455243373231526560008201527f63656976657220696d706c656d656e7465720000000000000000000000000000602082015250565b7f4552433732313a207472616e736665722066726f6d20696e636f72726563742060008201527f6f776e6572000000000000000000000000000000000000000000000000000000602082015250565b7f4552433732313a20746f6b656e20616c7265616479206d696e74656400000000600082015250565b7f4552433732313a207472616e7366657220746f20746865207a65726f2061646460008201527f7265737300000000000000000000000000000000000000000000000000000000602082015250565b7f4552433732313a20617070726f766520746f2063616c6c657200000000000000600082015250565b7f4552433732313a206f70657261746f7220717565727920666f72206e6f6e657860008201527f697374656e7420746f6b656e0000000000000000000000000000000000000000602082015250565b7f4552433732313a20617070726f76652063616c6c6572206973206e6f74206f7760008201527f6e6572206e6f7220617070726f76656420666f7220616c6c0000000000000000602082015250565b7f4552433732313a2062616c616e636520717565727920666f7220746865207a6560008201527f726f206164647265737300000000000000000000000000000000000000000000602082015250565b7f4552433732313a206f776e657220717565727920666f72206e6f6e657869737460008201527f656e7420746f6b656e0000000000000000000000000000000000000000000000602082015250565b7f4552433732313a206d696e7420746f20746865207a65726f2061646472657373600082015250565b7f4552433732313a20617070726f76656420717565727920666f72206e6f6e657860008201527f697374656e7420746f6b656e0000000000000000000000000000000000000000602082015250565b7f4552433732314d657461646174613a2055524920717565727920666f72206e6f60008201527f6e6578697374656e7420746f6b656e0000000000000000000000000000000000602082015250565b7f4552433732313a20617070726f76616c20746f2063757272656e74206f776e6560008201527f7200000000000000000000000000000000000000000000000000000000000000602082015250565b7f4552433732313a207472616e736665722063616c6c6572206973206e6f74206f60008201527f776e6572206e6f7220617070726f766564000000000000000000000000000000602082015250565b612707816120be565b811461271257600080fd5b50565b61271e816120d0565b811461272957600080fd5b50565b612735816120dc565b811461274057600080fd5b50565b61274c81612128565b811461275757600080fd5b5056fea2646970667358221220c476e39fa86111bd3b2de256353c2c55933f34237321cac3a3ffe1ea66632fe864736f6c63430008010033",
  "linkReferences": {},
  "deployedLinkReferences": {}
}