{
  "_format": "hh-sol-artifact-1",
  "contractName": "MyriaAsset",
  "sourceName": "contracts/MyriaAsset.sol",
  "abi": [
    {
      "inputs": [
        {
          "internalType": "address",
          "name": "_owner",
          "type": "address"
        },
        {
          "internalType": "string",
          "name": "_name",
          "type": "string"
        },
        {
          "internalType": "string",
          "name": "_symbol",
          "type": "string"
        },
        {
          "internalType": "address",
          "name": "_myria",
          "type": "address"
        }
      ],
      "stateMutability": "nonpayable",
      "type": "constructor"
    },
    {
      "anonymous": false,
      "inputs": [
        {
          "indexed": true,
          "internalType": "address",
          "name": "owner",
          "type": "address"
        },
        {
          "indexed": true,
          "internalType": "address",
          "name": "approved",
          "type": "address"
        },
        {
          "indexed": true,
          "internalType": "uint256",
          "name": "tokenId",
          "type": "uint256"
        }
      ],
      "name": "Approval",
      "type": "event"
    },
    {
      "anonymous": false,
      "inputs": [
        {
          "indexed": true,
          "internalType": "address",
          "name": "owner",
          "type": "address"
        },
        {
          "indexed": true,
          "internalType": "address",
          "name": "operator",
          "type": "address"
        },
        {
          "indexed": false,
          "internalType": "bool",
          "name": "approved",
          "type": "bool"
        }
      ],
      "name": "ApprovalForAll",
      "type": "event"
    },
    {
      "anonymous": false,
      "inputs": [
        {
          "indexed": false,
          "internalType": "address",
          "name": "to",
          "type": "address"
        },
        {
          "indexed": false,
          "internalType": "uint256",
          "name": "id",
          "type": "uint256"
        },
        {
          "indexed": false,
          "internalType": "bytes",
          "name": "blueprint",
          "type": "bytes"
        }
      ],
      "name": "AssetMinted",
      "type": "event"
    },
    {
      "anonymous": false,
      "inputs": [
        {
          "indexed": true,
          "internalType": "address",
          "name": "previousOwner",
          "type": "address"
        },
        {
          "indexed": true,
          "internalType": "address",
          "name": "newOwner",
          "type": "address"
        }
      ],
      "name": "OwnershipTransferred",
      "type": "event"
    },
    {
      "anonymous": false,
      "inputs": [
        {
          "indexed": true,
          "internalType": "address",
          "name": "from",
          "type": "address"
        },
        {
          "indexed": true,
          "internalType": "address",
          "name": "to",
          "type": "address"
        },
        {
          "indexed": true,
          "internalType": "uint256",
          "name": "tokenId",
          "type": "uint256"
        }
      ],
      "name": "Transfer",
      "type": "event"
    },
    {
      "inputs": [
        {
          "internalType": "address",
          "name": "to",
          "type": "address"
        },
        {
          "internalType": "uint256",
          "name": "tokenId",
          "type": "uint256"
        }
      ],
      "name": "approve",
      "outputs": [],
      "stateMutability": "nonpayable",
      "type": "function"
    },
    {
      "inputs": [
        {
          "internalType": "address",
          "name": "owner",
          "type": "address"
        }
      ],
      "name": "balanceOf",
      "outputs": [
        {
          "internalType": "uint256",
          "name": "",
          "type": "uint256"
        }
      ],
      "stateMutability": "view",
      "type": "function"
    },
    {
      "inputs": [
        {
          "internalType": "uint256",
          "name": "",
          "type": "uint256"
        }
      ],
      "name": "blueprints",
      "outputs": [
        {
          "internalType": "bytes",
          "name": "",
          "type": "bytes"
        }
      ],
      "stateMutability": "view",
      "type": "function"
    },
    {
      "inputs": [
        {
          "internalType": "uint256",
          "name": "tokenId",
          "type": "uint256"
        }
      ],
      "name": "getApproved",
      "outputs": [
        {
          "internalType": "address",
          "name": "",
          "type": "address"
        }
      ],
      "stateMutability": "view",
      "type": "function"
    },
    {
      "inputs": [
        {
          "internalType": "address",
          "name": "owner",
          "type": "address"
        },
        {
          "internalType": "address",
          "name": "operator",
          "type": "address"
        }
      ],
      "name": "isApprovedForAll",
      "outputs": [
        {
          "internalType": "bool",
          "name": "",
          "type": "bool"
        }
      ],
      "stateMutability": "view",
      "type": "function"
    },
    {
      "inputs": [
        {
          "internalType": "address",
          "name": "user",
          "type": "address"
        },
        {
          "internalType": "uint256",
          "name": "quantity",
          "type": "uint256"
        },
        {
          "internalType": "bytes",
          "name": "mintingBlob",
          "type": "bytes"
        }
      ],
      "name": "mintFor",
      "outputs": [],
      "stateMutability": "nonpayable",
      "type": "function"
    },
    {
      "inputs": [],
      "name": "myria",
      "outputs": [
        {
          "internalType": "address",
          "name": "",
          "type": "address"
        }
      ],
      "stateMutability": "view",
      "type": "function"
    },
    {
      "inputs": [],
      "name": "name",
      "outputs": [
        {
          "internalType": "string",
          "name": "",
          "type": "string"
        }
      ],
      "stateMutability": "view",
      "type": "function"
    },
    {
      "inputs": [],
      "name": "owner",
      "outputs": [
        {
          "internalType": "address",
          "name": "",
          "type": "address"
        }
      ],
      "stateMutability": "view",
      "type": "function"
    },
    {
      "inputs": [
        {
          "internalType": "uint256",
          "name": "tokenId",
          "type": "uint256"
        }
      ],
      "name": "ownerOf",
      "outputs": [
        {
          "internalType": "address",
          "name": "",
          "type": "address"
        }
      ],
      "stateMutability": "view",
      "type": "function"
    },
    {
      "inputs": [],
      "name": "renounceOwnership",
      "outputs": [],
      "stateMutability": "nonpayable",
      "type": "function"
    },
    {
      "inputs": [
        {
          "internalType": "address",
          "name": "from",
          "type": "address"
        },
        {
          "internalType": "address",
          "name": "to",
          "type": "address"
        },
        {
          "internalType": "uint256",
          "name": "tokenId",
          "type": "uint256"
        }
      ],
      "name": "safeTransferFrom",
      "outputs": [],
      "stateMutability": "nonpayable",
      "type": "function"
    },
    {
      "inputs": [
        {
          "internalType": "address",
          "name": "from",
          "type": "address"
        },
        {
          "internalType": "address",
          "name": "to",
          "type": "address"
        },
        {
          "internalType": "uint256",
          "name": "tokenId",
          "type": "uint256"
        },
        {
          "internalType": "bytes",
          "name": "_data",
          "type": "bytes"
        }
      ],
      "name": "safeTransferFrom",
      "outputs": [],
      "stateMutability": "nonpayable",
      "type": "function"
    },
    {
      "inputs": [
        {
          "internalType": "address",
          "name": "operator",
          "type": "address"
        },
        {
          "internalType": "bool",
          "name": "approved",
          "type": "bool"
        }
      ],
      "name": "setApprovalForAll",
      "outputs": [],
      "stateMutability": "nonpayable",
      "type": "function"
    },
    {
      "inputs": [
        {
          "internalType": "bytes4",
          "name": "interfaceId",
          "type": "bytes4"
        }
      ],
      "name": "supportsInterface",
      "outputs": [
        {
          "internalType": "bool",
          "name": "",
          "type": "bool"
        }
      ],
      "stateMutability": "view",
      "type": "function"
    },
    {
      "inputs": [],
      "name": "symbol",
      "outputs": [
        {
          "internalType": "string",
          "name": "",
          "type": "string"
        }
      ],
      "stateMutability": "view",
      "type": "function"
    },
    {
      "inputs": [
        {
          "internalType": "uint256",
          "name": "tokenId",
          "type": "uint256"
        }
      ],
      "name": "tokenURI",
      "outputs": [
        {
          "internalType": "string",
          "name": "",
          "type": "string"
        }
      ],
      "stateMutability": "view",
      "type": "function"
    },
    {
      "inputs": [
        {
          "internalType": "address",
          "name": "from",
          "type": "address"
        },
        {
          "internalType": "address",
          "name": "to",
          "type": "address"
        },
        {
          "internalType": "uint256",
          "name": "tokenId",
          "type": "uint256"
        }
      ],
      "name": "transferFrom",
      "outputs": [],
      "stateMutability": "nonpayable",
      "type": "function"
    },
    {
      "inputs": [
        {
          "internalType": "address",
          "name": "newOwner",
          "type": "address"
        }
      ],
      "name": "transferOwnership",
      "outputs": [],
      "stateMutability": "nonpayable",
      "type": "function"
    }
  ],
  "bytecode": "0x60806040523480156200001157600080fd5b5060405162003f2838038062003f288339818101604052810190620000379190620004a7565b838184848160009080519060200190620000539291906200036e565b5080600190805190602001906200006c9291906200036e565b5050506200008f620000836200016060201b60201c565b6200016860201b60201c565b80600760006101000a81548173ffffffffffffffffffffffffffffffffffffffff021916908373ffffffffffffffffffffffffffffffffffffffff160217905550600073ffffffffffffffffffffffffffffffffffffffff168273ffffffffffffffffffffffffffffffffffffffff16141562000143576040517f08c379a00000000000000000000000000000000000000000000000000000000081526004016200013a90620005dc565b60405180910390fd5b62000154826200022e60201b60201c565b50505050505062000890565b600033905090565b6000600660009054906101000a900473ffffffffffffffffffffffffffffffffffffffff16905081600660006101000a81548173ffffffffffffffffffffffffffffffffffffffff021916908373ffffffffffffffffffffffffffffffffffffffff1602179055508173ffffffffffffffffffffffffffffffffffffffff168173ffffffffffffffffffffffffffffffffffffffff167f8be0079c531659141344cd1fd0a4f28419497f9722a3daafe3b4186f6b6457e060405160405180910390a35050565b6200023e6200016060201b60201c565b73ffffffffffffffffffffffffffffffffffffffff16620002646200034460201b60201c565b73ffffffffffffffffffffffffffffffffffffffff1614620002bd576040517f08c379a0000000000000000000000000000000000000000000000000000000008152600401620002b490620005fe565b60405180910390fd5b600073ffffffffffffffffffffffffffffffffffffffff168173ffffffffffffffffffffffffffffffffffffffff16141562000330576040517f08c379a00000000000000000000000000000000000000000000000000000000081526004016200032790620005ba565b60405180910390fd5b62000341816200016860201b60201c565b50565b6000600660009054906101000a900473ffffffffffffffffffffffffffffffffffffffff16905090565b8280546200037c90620006fa565b90600052602060002090601f016020900481019282620003a05760008555620003ec565b82601f10620003bb57805160ff1916838001178555620003ec565b82800160010185558215620003ec579182015b82811115620003eb578251825591602001919060010190620003ce565b5b509050620003fb9190620003ff565b5090565b5b808211156200041a57600081600090555060010162000400565b5090565b6000620004356200042f8462000649565b62000620565b9050828152602081018484840111156200044e57600080fd5b6200045b848285620006c4565b509392505050565b600081519050620004748162000876565b92915050565b600082601f8301126200048c57600080fd5b81516200049e8482602086016200041e565b91505092915050565b60008060008060808587031215620004be57600080fd5b6000620004ce8782880162000463565b945050602085015167ffffffffffffffff811115620004ec57600080fd5b620004fa878288016200047a565b935050604085015167ffffffffffffffff8111156200051857600080fd5b62000526878288016200047a565b9250506060620005398782880162000463565b91505092959194509250565b6000620005546026836200067f565b91506200056182620007d5565b604082019050919050565b60006200057b6017836200067f565b9150620005888262000824565b602082019050919050565b6000620005a26020836200067f565b9150620005af826200084d565b602082019050919050565b60006020820190508181036000830152620005d58162000545565b9050919050565b60006020820190508181036000830152620005f7816200056c565b9050919050565b60006020820190508181036000830152620006198162000593565b9050919050565b60006200062c6200063f565b90506200063a828262000730565b919050565b6000604051905090565b600067ffffffffffffffff82111562000667576200066662000795565b5b6200067282620007c4565b9050602081019050919050565b600082825260208201905092915050565b60006200069d82620006a4565b9050919050565b600073ffffffffffffffffffffffffffffffffffffffff82169050919050565b60005b83811015620006e4578082015181840152602081019050620006c7565b83811115620006f4576000848401525b50505050565b600060028204905060018216806200071357607f821691505b602082108114156200072a576200072962000766565b5b50919050565b6200073b82620007c4565b810181811067ffffffffffffffff821117156200075d576200075c62000795565b5b80604052505050565b7f4e487b7100000000000000000000000000000000000000000000000000000000600052602260045260246000fd5b7f4e487b7100000000000000000000000000000000000000000000000000000000600052604160045260246000fd5b6000601f19601f8301169050919050565b7f4f776e61626c653a206e6577206f776e657220697320746865207a65726f206160008201527f6464726573730000000000000000000000000000000000000000000000000000602082015250565b7f4f776e6572206d757374206e6f7420626520656d707479000000000000000000600082015250565b7f4f776e61626c653a2063616c6c6572206973206e6f7420746865206f776e6572600082015250565b620008818162000690565b81146200088d57600080fd5b50565b61368880620008a06000396000f3fe608060405234801561001057600080fd5b50600436106101205760003560e01c806366bf33be116100ad578063a22cb46511610071578063a22cb46514610307578063b88d4fde14610323578063c87b56dd1461033f578063e985e9c51461036f578063f2fde38b1461039f57610120565b806366bf33be1461026157806370a0823114610291578063715018a6146102c15780638da5cb5b146102cb57806395d89b41146102e957610120565b8063095ea7b3116100f4578063095ea7b3146101c157806319ee6e3f146101dd57806323b872dd146101f957806342842e0e146102155780636352211e1461023157610120565b806256829e1461012557806301ffc9a71461014357806306fdde0314610173578063081812fc14610191575b600080fd5b61012d6103bb565b60405161013a91906128ce565b60405180910390f35b61015d600480360381019061015891906124a3565b6103e1565b60405161016a9190612973565b60405180910390f35b61017b6104c3565b60405161018891906129b0565b60405180910390f35b6101ab60048036038101906101a691906124f5565b610555565b6040516101b891906128ce565b60405180910390f35b6101db60048036038101906101d691906123fb565b6105da565b005b6101f760048036038101906101f29190612437565b6106f2565b005b610213600480360381019061020e91906122f5565b610889565b005b61022f600480360381019061022a91906122f5565b6108e9565b005b61024b600480360381019061024691906124f5565b610909565b60405161025891906128ce565b60405180910390f35b61027b600480360381019061027691906124f5565b6109bb565b604051610288919061298e565b60405180910390f35b6102ab60048036038101906102a69190612290565b610a5b565b6040516102b89190612c52565b60405180910390f35b6102c9610b13565b005b6102d3610b9b565b6040516102e091906128ce565b60405180910390f35b6102f1610bc5565b6040516102fe91906129b0565b60405180910390f35b610321600480360381019061031c91906123bf565b610c57565b005b61033d60048036038101906103389190612344565b610c6d565b005b610359600480360381019061035491906124f5565b610ccf565b60405161036691906129b0565b60405180910390f35b610389600480360381019061038491906122b9565b610d76565b6040516103969190612973565b60405180910390f35b6103b960048036038101906103b49190612290565b610e0a565b005b600760009054906101000a900473ffffffffffffffffffffffffffffffffffffffff1681565b60007f80ac58cd000000000000000000000000000000000000000000000000000000007bffffffffffffffffffffffffffffffffffffffffffffffffffffffff1916827bffffffffffffffffffffffffffffffffffffffffffffffffffffffff191614806104ac57507f5b5e139f000000000000000000000000000000000000000000000000000000007bffffffffffffffffffffffffffffffffffffffffffffffffffffffff1916827bffffffffffffffffffffffffffffffffffffffffffffffffffffffff1916145b806104bc57506104bb82610f02565b5b9050919050565b6060600080546104d290612f04565b80601f01602080910402602001604051908101604052809291908181526020018280546104fe90612f04565b801561054b5780601f106105205761010080835404028352916020019161054b565b820191906000526020600020905b81548152906001019060200180831161052e57829003601f168201915b5050505050905090565b600061056082610f6c565b61059f576040517f08c379a000000000000000000000000000000000000000000000000000000000815260040161059690612b72565b60405180910390fd5b6004600083815260200190815260200160002060009054906101000a900473ffffffffffffffffffffffffffffffffffffffff169050919050565b60006105e582610909565b90508073ffffffffffffffffffffffffffffffffffffffff168373ffffffffffffffffffffffffffffffffffffffff161415610656576040517f08c379a000000000000000000000000000000000000000000000000000000000815260040161064d90612bf2565b60405180910390fd5b8073ffffffffffffffffffffffffffffffffffffffff16610675610fd8565b73ffffffffffffffffffffffffffffffffffffffff1614806106a457506106a38161069e610fd8565b610d76565b5b6106e3576040517f08c379a00000000000000000000000000000000000000000000000000000000081526004016106da90612af2565b60405180910390fd5b6106ed8383610fe0565b505050565b600760009054906101000a900473ffffffffffffffffffffffffffffffffffffffff1673ffffffffffffffffffffffffffffffffffffffff163373ffffffffffffffffffffffffffffffffffffffff1614806107805750610751610b9b565b73ffffffffffffffffffffffffffffffffffffffff163373ffffffffffffffffffffffffffffffffffffffff16145b6107bf576040517f08c379a00000000000000000000000000000000000000000000000000000000081526004016107b690612bd2565b60405180910390fd5b60018314610802576040517f08c379a00000000000000000000000000000000000000000000000000000000081526004016107f990612ab2565b60405180910390fd5b60008061080f8484611099565b9150915061081e8683836112ae565b806008600084815260200190815260200160002090805190602001906108459291906120d2565b507f31e594f6b36b98ec520a91cbbba7b8724b1cec27393f86d8f0f6aa6084db0aaf86838360405161087993929190612935565b60405180910390a1505050505050565b61089a610894610fd8565b826112bd565b6108d9576040517f08c379a00000000000000000000000000000000000000000000000000000000081526004016108d090612c32565b60405180910390fd5b6108e483838361139b565b505050565b61090483838360405180602001604052806000815250610c6d565b505050565b6000806002600084815260200190815260200160002060009054906101000a900473ffffffffffffffffffffffffffffffffffffffff169050600073ffffffffffffffffffffffffffffffffffffffff168173ffffffffffffffffffffffffffffffffffffffff1614156109b2576040517f08c379a00000000000000000000000000000000000000000000000000000000081526004016109a990612b32565b60405180910390fd5b80915050919050565b600860205280600052604060002060009150905080546109da90612f04565b80601f0160208091040260200160405190810160405280929190818152602001828054610a0690612f04565b8015610a535780601f10610a2857610100808354040283529160200191610a53565b820191906000526020600020905b815481529060010190602001808311610a3657829003601f168201915b505050505081565b60008073ffffffffffffffffffffffffffffffffffffffff168273ffffffffffffffffffffffffffffffffffffffff161415610acc576040517f08c379a0000000000000000000000000000000000000000000000000000000008152600401610ac390612b12565b60405180910390fd5b600360008373ffffffffffffffffffffffffffffffffffffffff1673ffffffffffffffffffffffffffffffffffffffff168152602001908152602001600020549050919050565b610b1b610fd8565b73ffffffffffffffffffffffffffffffffffffffff16610b39610b9b565b73ffffffffffffffffffffffffffffffffffffffff1614610b8f576040517f08c379a0000000000000000000000000000000000000000000000000000000008152600401610b8690612b92565b60405180910390fd5b610b996000611602565b565b6000600660009054906101000a900473ffffffffffffffffffffffffffffffffffffffff16905090565b606060018054610bd490612f04565b80601f0160208091040260200160405190810160405280929190818152602001828054610c0090612f04565b8015610c4d5780601f10610c2257610100808354040283529160200191610c4d565b820191906000526020600020905b815481529060010190602001808311610c3057829003601f168201915b5050505050905090565b610c69610c62610fd8565b83836116c8565b5050565b610c7e610c78610fd8565b836112bd565b610cbd576040517f08c379a0000000000000000000000000000000000000000000000000000000008152600401610cb490612c32565b60405180910390fd5b610cc984848484611835565b50505050565b6060610cda82610f6c565b610d19576040517f08c379a0000000000000000000000000000000000000000000000000000000008152600401610d1090612bb2565b60405180910390fd5b6000610d23611891565b90506000815111610d435760405180602001604052806000815250610d6e565b80610d4d846118a8565b604051602001610d5e9291906128aa565b6040516020818303038152906040525b915050919050565b6000600560008473ffffffffffffffffffffffffffffffffffffffff1673ffffffffffffffffffffffffffffffffffffffff16815260200190815260200160002060008373ffffffffffffffffffffffffffffffffffffffff1673ffffffffffffffffffffffffffffffffffffffff16815260200190815260200160002060009054906101000a900460ff16905092915050565b610e12610fd8565b73ffffffffffffffffffffffffffffffffffffffff16610e30610b9b565b73ffffffffffffffffffffffffffffffffffffffff1614610e86576040517f08c379a0000000000000000000000000000000000000000000000000000000008152600401610e7d90612b92565b60405180910390fd5b600073ffffffffffffffffffffffffffffffffffffffff168173ffffffffffffffffffffffffffffffffffffffff161415610ef6576040517f08c379a0000000000000000000000000000000000000000000000000000000008152600401610eed90612a12565b60405180910390fd5b610eff81611602565b50565b60007f01ffc9a7000000000000000000000000000000000000000000000000000000007bffffffffffffffffffffffffffffffffffffffffffffffffffffffff1916827bffffffffffffffffffffffffffffffffffffffffffffffffffffffff1916149050919050565b60008073ffffffffffffffffffffffffffffffffffffffff166002600084815260200190815260200160002060009054906101000a900473ffffffffffffffffffffffffffffffffffffffff1673ffffffffffffffffffffffffffffffffffffffff1614159050919050565b600033905090565b816004600083815260200190815260200160002060006101000a81548173ffffffffffffffffffffffffffffffffffffffff021916908373ffffffffffffffffffffffffffffffffffffffff160217905550808273ffffffffffffffffffffffffffffffffffffffff1661105383610909565b73ffffffffffffffffffffffffffffffffffffffff167f8c5be1e5ebec7d5bd14f71427d1e84f3dd0314c0f7b2291e5b200ac8c7c3b92560405160405180910390a45050565b60006060600061112485858080601f016020809104026020016040519081016040528093929190818152602001838380828437600081840152601f19601f820116905080830192505050505050506040518060400160405280600181526020017f3a000000000000000000000000000000000000000000000000000000000000008152506000611a55565b9050600081121561116a576040517f08c379a000000000000000000000000000000000000000000000000000000000815260040161116190612c12565b60405180910390fd5b60006111d686866001906001866111819190612e1a565b9261118e93929190612d06565b8080601f016020809104026020016040519081016040528093929190818152602001838380828437600081840152601f19601f82011690508083019250505050505050611bbf565b90506000600383888890506111eb9190612e1a565b6111f59190612e1a565b9050600081141561121d578160405180602001604052806000815250945094505050506112a7565b366000888860028761122f9190612d39565b9060018c8c90506112409190612e1a565b9261124d93929190612d06565b9150915083828281818080601f016020809104026020016040519081016040528093929190818152602001838380828437600081840152601f19601f82011690508083019250505050505050905090509650965050505050505b9250929050565b6112b88383611cbb565b505050565b60006112c882610f6c565b611307576040517f08c379a00000000000000000000000000000000000000000000000000000000081526004016112fe90612ad2565b60405180910390fd5b600061131283610909565b90508073ffffffffffffffffffffffffffffffffffffffff168473ffffffffffffffffffffffffffffffffffffffff16148061135457506113538185610d76565b5b8061139257508373ffffffffffffffffffffffffffffffffffffffff1661137a84610555565b73ffffffffffffffffffffffffffffffffffffffff16145b91505092915050565b8273ffffffffffffffffffffffffffffffffffffffff166113bb82610909565b73ffffffffffffffffffffffffffffffffffffffff1614611411576040517f08c379a000000000000000000000000000000000000000000000000000000000815260040161140890612a32565b60405180910390fd5b600073ffffffffffffffffffffffffffffffffffffffff168273ffffffffffffffffffffffffffffffffffffffff161415611481576040517f08c379a000000000000000000000000000000000000000000000000000000000815260040161147890612a72565b60405180910390fd5b61148c838383611cd9565b611497600082610fe0565b6001600360008573ffffffffffffffffffffffffffffffffffffffff1673ffffffffffffffffffffffffffffffffffffffff16815260200190815260200160002060008282546114e79190612e1a565b925050819055506001600360008473ffffffffffffffffffffffffffffffffffffffff1673ffffffffffffffffffffffffffffffffffffffff168152602001908152602001600020600082825461153e9190612d39565b92505081905550816002600083815260200190815260200160002060006101000a81548173ffffffffffffffffffffffffffffffffffffffff021916908373ffffffffffffffffffffffffffffffffffffffff160217905550808273ffffffffffffffffffffffffffffffffffffffff168473ffffffffffffffffffffffffffffffffffffffff167fddf252ad1be2c89b69c2b068fc378daa952ba7f163c4a11628f55a4df523b3ef60405160405180910390a46115fd838383611cde565b505050565b6000600660009054906101000a900473ffffffffffffffffffffffffffffffffffffffff16905081600660006101000a81548173ffffffffffffffffffffffffffffffffffffffff021916908373ffffffffffffffffffffffffffffffffffffffff1602179055508173ffffffffffffffffffffffffffffffffffffffff168173ffffffffffffffffffffffffffffffffffffffff167f8be0079c531659141344cd1fd0a4f28419497f9722a3daafe3b4186f6b6457e060405160405180910390a35050565b8173ffffffffffffffffffffffffffffffffffffffff168373ffffffffffffffffffffffffffffffffffffffff161415611737576040517f08c379a000000000000000000000000000000000000000000000000000000000815260040161172e90612a92565b60405180910390fd5b80600560008573ffffffffffffffffffffffffffffffffffffffff1673ffffffffffffffffffffffffffffffffffffffff16815260200190815260200160002060008473ffffffffffffffffffffffffffffffffffffffff1673ffffffffffffffffffffffffffffffffffffffff16815260200190815260200160002060006101000a81548160ff0219169083151502179055508173ffffffffffffffffffffffffffffffffffffffff168373ffffffffffffffffffffffffffffffffffffffff167f17307eab39ab6107e8899845ad3d59bd9653f200f220920489ca2b5937696c31836040516118289190612973565b60405180910390a3505050565b61184084848461139b565b61184c84848484611ce3565b61188b576040517f08c379a0000000000000000000000000000000000000000000000000000000008152600401611882906129f2565b60405180910390fd5b50505050565b606060405180602001604052806000815250905090565b606060008214156118f0576040518060400160405280600181526020017f30000000000000000000000000000000000000000000000000000000000000008152509050611a50565b600082905060005b6000821461192257808061190b90612f67565b915050600a8261191b9190612d8f565b91506118f8565b60008167ffffffffffffffff811115611964577f4e487b7100000000000000000000000000000000000000000000000000000000600052604160045260246000fd5b6040519080825280601f01601f1916602001820160405280156119965781602001600182028036833780820191505090505b5090505b60008514611a49576001826119af9190612e1a565b9150600a856119be9190612fb0565b60306119ca9190612d39565b60f81b818381518110611a06577f4e487b7100000000000000000000000000000000000000000000000000000000600052603260045260246000fd5b60200101907effffffffffffffffffffffffffffffffffffffffffffffffffffffffffffff1916908160001a905350600a85611a429190612d8f565b945061199a565b8093505050505b919050565b6000808390506001815114611a93577f4e487b7100000000000000000000000000000000000000000000000000000000600052600160045260246000fd5b60008390505b8551811015611b925781600081518110611adc577f4e487b7100000000000000000000000000000000000000000000000000000000600052603260045260246000fd5b602001015160f81c60f81b7effffffffffffffffffffffffffffffffffffffffffffffffffffffffffffff1916868281518110611b42577f4e487b7100000000000000000000000000000000000000000000000000000000600052603260045260246000fd5b602001015160f81c60f81b7effffffffffffffffffffffffffffffffffffffffffffffffffffffffffffff19161415611b7f578092505050611bb8565b8080611b8a90612f67565b915050611a99565b507fffffffffffffffffffffffffffffffffffffffffffffffffffffffffffffffff9150505b9392505050565b6000806000905060005b8351811015611cb1576000848281518110611c0d577f4e487b7100000000000000000000000000000000000000000000000000000000600052603260045260246000fd5b602001015160f81c60f81b60f81c60ff16905060308110158015611c32575060398111155b15611c6257603081611c449190612e1a565b600a84611c519190612dc0565b611c5b9190612d39565b9250611c9d565b6040517f08c379a0000000000000000000000000000000000000000000000000000000008152600401611c94906129d2565b60405180910390fd5b508080611ca990612f67565b915050611bc9565b5080915050919050565b611cd5828260405180602001604052806000815250611e7a565b5050565b505050565b505050565b6000611d048473ffffffffffffffffffffffffffffffffffffffff16611ed5565b15611e6d578373ffffffffffffffffffffffffffffffffffffffff1663150b7a02611d2d610fd8565b8786866040518563ffffffff1660e01b8152600401611d4f94939291906128e9565b602060405180830381600087803b158015611d6957600080fd5b505af1925050508015611d9a57506040513d601f19601f82011682018060405250810190611d9791906124cc565b60015b611e1d573d8060008114611dca576040519150601f19603f3d011682016040523d82523d6000602084013e611dcf565b606091505b50600081511415611e15576040517f08c379a0000000000000000000000000000000000000000000000000000000008152600401611e0c906129f2565b60405180910390fd5b805181602001fd5b63150b7a0260e01b7bffffffffffffffffffffffffffffffffffffffffffffffffffffffff1916817bffffffffffffffffffffffffffffffffffffffffffffffffffffffff191614915050611e72565b600190505b949350505050565b611e848383611ef8565b611e916000848484611ce3565b611ed0576040517f08c379a0000000000000000000000000000000000000000000000000000000008152600401611ec7906129f2565b60405180910390fd5b505050565b6000808273ffffffffffffffffffffffffffffffffffffffff163b119050919050565b600073ffffffffffffffffffffffffffffffffffffffff168273ffffffffffffffffffffffffffffffffffffffff161415611f68576040517f08c379a0000000000000000000000000000000000000000000000000000000008152600401611f5f90612b52565b60405180910390fd5b611f7181610f6c565b15611fb1576040517f08c379a0000000000000000000000000000000000000000000000000000000008152600401611fa890612a52565b60405180910390fd5b611fbd60008383611cd9565b6001600360008473ffffffffffffffffffffffffffffffffffffffff1673ffffffffffffffffffffffffffffffffffffffff168152602001908152602001600020600082825461200d9190612d39565b92505081905550816002600083815260200190815260200160002060006101000a81548173ffffffffffffffffffffffffffffffffffffffff021916908373ffffffffffffffffffffffffffffffffffffffff160217905550808273ffffffffffffffffffffffffffffffffffffffff16600073ffffffffffffffffffffffffffffffffffffffff167fddf252ad1be2c89b69c2b068fc378daa952ba7f163c4a11628f55a4df523b3ef60405160405180910390a46120ce60008383611cde565b5050565b8280546120de90612f04565b90600052602060002090601f0160209004810192826121005760008555612147565b82601f1061211957805160ff1916838001178555612147565b82800160010185558215612147579182015b8281111561214657825182559160200191906001019061212b565b5b5090506121549190612158565b5090565b5b80821115612171576000816000905550600101612159565b5090565b600061218861218384612c92565b612c6d565b9050828152602081018484840111156121a057600080fd5b6121ab848285612ec2565b509392505050565b6000813590506121c2816135f6565b92915050565b6000813590506121d78161360d565b92915050565b6000813590506121ec81613624565b92915050565b60008151905061220181613624565b92915050565b60008083601f84011261221957600080fd5b8235905067ffffffffffffffff81111561223257600080fd5b60208301915083600182028301111561224a57600080fd5b9250929050565b600082601f83011261226257600080fd5b8135612272848260208601612175565b91505092915050565b60008135905061228a8161363b565b92915050565b6000602082840312156122a257600080fd5b60006122b0848285016121b3565b91505092915050565b600080604083850312156122cc57600080fd5b60006122da858286016121b3565b92505060206122eb858286016121b3565b9150509250929050565b60008060006060848603121561230a57600080fd5b6000612318868287016121b3565b9350506020612329868287016121b3565b925050604061233a8682870161227b565b9150509250925092565b6000806000806080858703121561235a57600080fd5b6000612368878288016121b3565b9450506020612379878288016121b3565b935050604061238a8782880161227b565b925050606085013567ffffffffffffffff8111156123a757600080fd5b6123b387828801612251565b91505092959194509250565b600080604083850312156123d257600080fd5b60006123e0858286016121b3565b92505060206123f1858286016121c8565b9150509250929050565b6000806040838503121561240e57600080fd5b600061241c858286016121b3565b925050602061242d8582860161227b565b9150509250929050565b6000806000806060858703121561244d57600080fd5b600061245b878288016121b3565b945050602061246c8782880161227b565b935050604085013567ffffffffffffffff81111561248957600080fd5b61249587828801612207565b925092505092959194509250565b6000602082840312156124b557600080fd5b60006124c3848285016121dd565b91505092915050565b6000602082840312156124de57600080fd5b60006124ec848285016121f2565b91505092915050565b60006020828403121561250757600080fd5b60006125158482850161227b565b91505092915050565b61252781612e4e565b82525050565b61253681612e60565b82525050565b600061254782612cc3565b6125518185612cd9565b9350612561818560208601612ed1565b61256a8161309d565b840191505092915050565b600061258082612cce565b61258a8185612cea565b935061259a818560208601612ed1565b6125a38161309d565b840191505092915050565b60006125b982612cce565b6125c38185612cfb565b93506125d3818560208601612ed1565b80840191505092915050565b60006125ec602383612cea565b91506125f7826130ae565b604082019050919050565b600061260f603283612cea565b915061261a826130fd565b604082019050919050565b6000612632602683612cea565b915061263d8261314c565b604082019050919050565b6000612655602583612cea565b91506126608261319b565b604082019050919050565b6000612678601c83612cea565b9150612683826131ea565b602082019050919050565b600061269b602483612cea565b91506126a682613213565b604082019050919050565b60006126be601983612cea565b91506126c982613262565b602082019050919050565b60006126e1601a83612cea565b91506126ec8261328b565b602082019050919050565b6000612704602c83612cea565b915061270f826132b4565b604082019050919050565b6000612727603883612cea565b915061273282613303565b604082019050919050565b600061274a602a83612cea565b915061275582613352565b604082019050919050565b600061276d602983612cea565b9150612778826133a1565b604082019050919050565b6000612790602083612cea565b915061279b826133f0565b602082019050919050565b60006127b3602c83612cea565b91506127be82613419565b604082019050919050565b60006127d6602083612cea565b91506127e182613468565b602082019050919050565b60006127f9602f83612cea565b915061280482613491565b604082019050919050565b600061281c602d83612cea565b9150612827826134e0565b604082019050919050565b600061283f602183612cea565b915061284a8261352f565b604082019050919050565b6000612862601483612cea565b915061286d8261357e565b602082019050919050565b6000612885603183612cea565b9150612890826135a7565b604082019050919050565b6128a481612eb8565b82525050565b60006128b682856125ae565b91506128c282846125ae565b91508190509392505050565b60006020820190506128e3600083018461251e565b92915050565b60006080820190506128fe600083018761251e565b61290b602083018661251e565b612918604083018561289b565b818103606083015261292a818461253c565b905095945050505050565b600060608201905061294a600083018661251e565b612957602083018561289b565b8181036040830152612969818461253c565b9050949350505050565b6000602082019050612988600083018461252d565b92915050565b600060208201905081810360008301526129a8818461253c565b905092915050565b600060208201905081810360008301526129ca8184612575565b905092915050565b600060208201905081810360008301526129eb816125df565b9050919050565b60006020820190508181036000830152612a0b81612602565b9050919050565b60006020820190508181036000830152612a2b81612625565b9050919050565b60006020820190508181036000830152612a4b81612648565b9050919050565b60006020820190508181036000830152612a6b8161266b565b9050919050565b60006020820190508181036000830152612a8b8161268e565b9050919050565b60006020820190508181036000830152612aab816126b1565b9050919050565b60006020820190508181036000830152612acb816126d4565b9050919050565b60006020820190508181036000830152612aeb816126f7565b9050919050565b60006020820190508181036000830152612b0b8161271a565b9050919050565b60006020820190508181036000830152612b2b8161273d565b9050919050565b60006020820190508181036000830152612b4b81612760565b9050919050565b60006020820190508181036000830152612b6b81612783565b9050919050565b60006020820190508181036000830152612b8b816127a6565b9050919050565b60006020820190508181036000830152612bab816127c9565b9050919050565b60006020820190508181036000830152612bcb816127ec565b9050919050565b60006020820190508181036000830152612beb8161280f565b9050919050565b60006020820190508181036000830152612c0b81612832565b9050919050565b60006020820190508181036000830152612c2b81612855565b9050919050565b60006020820190508181036000830152612c4b81612878565b9050919050565b6000602082019050612c67600083018461289b565b92915050565b6000612c77612c88565b9050612c838282612f36565b919050565b6000604051905090565b600067ffffffffffffffff821115612cad57612cac61306e565b5b612cb68261309d565b9050602081019050919050565b600081519050919050565b600081519050919050565b600082825260208201905092915050565b600082825260208201905092915050565b600081905092915050565b60008085851115612d1657600080fd5b83861115612d2357600080fd5b6001850283019150848603905094509492505050565b6000612d4482612eb8565b9150612d4f83612eb8565b9250827fffffffffffffffffffffffffffffffffffffffffffffffffffffffffffffffff03821115612d8457612d83612fe1565b5b828201905092915050565b6000612d9a82612eb8565b9150612da583612eb8565b925082612db557612db4613010565b5b828204905092915050565b6000612dcb82612eb8565b9150612dd683612eb8565b9250817fffffffffffffffffffffffffffffffffffffffffffffffffffffffffffffffff0483118215151615612e0f57612e0e612fe1565b5b828202905092915050565b6000612e2582612eb8565b9150612e3083612eb8565b925082821015612e4357612e42612fe1565b5b828203905092915050565b6000612e5982612e98565b9050919050565b60008115159050919050565b60007fffffffff0000000000000000000000000000000000000000000000000000000082169050919050565b600073ffffffffffffffffffffffffffffffffffffffff82169050919050565b6000819050919050565b82818337600083830152505050565b60005b83811015612eef578082015181840152602081019050612ed4565b83811115612efe576000848401525b50505050565b60006002820490506001821680612f1c57607f821691505b60208210811415612f3057612f2f61303f565b5b50919050565b612f3f8261309d565b810181811067ffffffffffffffff82111715612f5e57612f5d61306e565b5b80604052505050565b6000612f7282612eb8565b91507fffffffffffffffffffffffffffffffffffffffffffffffffffffffffffffffff821415612fa557612fa4612fe1565b5b600182019050919050565b6000612fbb82612eb8565b9150612fc683612eb8565b925082612fd657612fd5613010565b5b828206905092915050565b7f4e487b7100000000000000000000000000000000000000000000000000000000600052601160045260246000fd5b7f4e487b7100000000000000000000000000000000000000000000000000000000600052601260045260246000fd5b7f4e487b7100000000000000000000000000000000000000000000000000000000600052602260045260246000fd5b7f4e487b7100000000000000000000000000000000000000000000000000000000600052604160045260246000fd5b6000601f19601f8301169050919050565b7f696e76616c696420696e7075742c206f6e6c79206e756d6265727320616c6c6f60008201527f7765640000000000000000000000000000000000000000000000000000000000602082015250565b7f4552433732313a207472616e7366657220746f206e6f6e20455243373231526560008201527f63656976657220696d706c656d656e7465720000000000000000000000000000602082015250565b7f4f776e61626c653a206e6577206f776e657220697320746865207a65726f206160008201527f6464726573730000000000000000000000000000000000000000000000000000602082015250565b7f4552433732313a207472616e736665722066726f6d20696e636f72726563742060008201527f6f776e6572000000000000000000000000000000000000000000000000000000602082015250565b7f4552433732313a20746f6b656e20616c7265616479206d696e74656400000000600082015250565b7f4552433732313a207472616e7366657220746f20746865207a65726f2061646460008201527f7265737300000000000000000000000000000000000000000000000000000000602082015250565b7f4552433732313a20617070726f766520746f2063616c6c657200000000000000600082015250565b7f4d696e7461626c653a20696e76616c6964207175616e74697479000000000000600082015250565b7f4552433732313a206f70657261746f7220717565727920666f72206e6f6e657860008201527f697374656e7420746f6b656e0000000000000000000000000000000000000000602082015250565b7f4552433732313a20617070726f76652063616c6c6572206973206e6f74206f7760008201527f6e6572206e6f7220617070726f76656420666f7220616c6c0000000000000000602082015250565b7f4552433732313a2062616c616e636520717565727920666f7220746865207a6560008201527f726f206164647265737300000000000000000000000000000000000000000000602082015250565b7f4552433732313a206f776e657220717565727920666f72206e6f6e657869737460008201527f656e7420746f6b656e0000000000000000000000000000000000000000000000602082015250565b7f4552433732313a206d696e7420746f20746865207a65726f2061646472657373600082015250565b7f4552433732313a20617070726f76656420717565727920666f72206e6f6e657860008201527f697374656e7420746f6b656e0000000000000000000000000000000000000000602082015250565b7f4f776e61626c653a2063616c6c6572206973206e6f7420746865206f776e6572600082015250565b7f4552433732314d657461646174613a2055524920717565727920666f72206e6f60008201527f6e6578697374656e7420746f6b656e0000000000000000000000000000000000602082015250565b7f46756e6374696f6e2063616e206f6e6c792062652063616c6c6564206279206f60008201527f776e6572206f72206d7972696100000000000000000000000000000000000000602082015250565b7f4552433732313a20617070726f76616c20746f2063757272656e74206f776e6560008201527f7200000000000000000000000000000000000000000000000000000000000000602082015250565b7f536570617261746f72206d757374206578697374000000000000000000000000600082015250565b7f4552433732313a207472616e736665722063616c6c6572206973206e6f74206f60008201527f776e6572206e6f7220617070726f766564000000000000000000000000000000602082015250565b6135ff81612e4e565b811461360a57600080fd5b50565b61361681612e60565b811461362157600080fd5b50565b61362d81612e6c565b811461363857600080fd5b50565b61364481612eb8565b811461364f57600080fd5b5056fea26469706673582212207f7887b162293a25d10c69574617920d5c41c6bb448a5388386b3073a732870b64736f6c63430008010033",
  "linkReferences": {},
  "deployedLinkReferences": {}
}