{
  "_format": "hh-sol-artifact-1",
  "contractName": "PureToken",
  "sourceName": "contracts/PureToken.sol",
  "abi": [
    {
      "inputs": [],
      "stateMutability": "nonpayable",
      "type": "constructor"
    },
    {
      "anonymous": false,
      "inputs": [
        {
          "indexed": true,
          "internalType": "address",
          "name": "owner",
          "type": "address"
        },
        {
          "indexed": true,
          "internalType": "address",
          "name": "spender",
          "type": "address"
        },
        {
          "indexed": false,
          "internalType": "uint256",
          "name": "value",
          "type": "uint256"
        }
      ],
      "name": "Approval",
      "type": "event"
    },
    {
      "anonymous": false,
      "inputs": [
        {
          "indexed": true,
          "internalType": "address",
          "name": "from",
          "type": "address"
        },
        {
          "indexed": true,
          "internalType": "address",
          "name": "to",
          "type": "address"
        },
        {
          "indexed": false,
          "internalType": "uint256",
          "name": "value",
          "type": "uint256"
        }
      ],
      "name": "Transfer",
      "type": "event"
    },
    {
      "inputs": [
        {
          "internalType": "address",
          "name": "owner",
          "type": "address"
        },
        {
          "internalType": "address",
          "name": "spender",
          "type": "address"
        }
      ],
      "name": "allowance",
      "outputs": [
        {
          "internalType": "uint256",
          "name": "",
          "type": "uint256"
        }
      ],
      "stateMutability": "view",
      "type": "function"
    },
    {
      "inputs": [
        {
          "internalType": "address",
          "name": "spender",
          "type": "address"
        },
        {
          "internalType": "uint256",
          "name": "amount",
          "type": "uint256"
        }
      ],
      "name": "approve",
      "outputs": [
        {
          "internalType": "bool",
          "name": "",
          "type": "bool"
        }
      ],
      "stateMutability": "nonpayable",
      "type": "function"
    },
    {
      "inputs": [
        {
          "internalType": "address",
          "name": "account",
          "type": "address"
        }
      ],
      "name": "balanceOf",
      "outputs": [
        {
          "internalType": "uint256",
          "name": "",
          "type": "uint256"
        }
      ],
      "stateMutability": "view",
      "type": "function"
    },
    {
      "inputs": [],
      "name": "coinTotalSupply",
      "outputs": [
        {
          "internalType": "uint256",
          "name": "",
          "type": "uint256"
        }
      ],
      "stateMutability": "view",
      "type": "function"
    },
    {
      "inputs": [],
      "name": "decimals",
      "outputs": [
        {
          "internalType": "uint8",
          "name": "",
          "type": "uint8"
        }
      ],
      "stateMutability": "view",
      "type": "function"
    },
    {
      "inputs": [
        {
          "internalType": "address",
          "name": "spender",
          "type": "address"
        },
        {
          "internalType": "uint256",
          "name": "subtractedValue",
          "type": "uint256"
        }
      ],
      "name": "decreaseAllowance",
      "outputs": [
        {
          "internalType": "bool",
          "name": "",
          "type": "bool"
        }
      ],
      "stateMutability": "nonpayable",
      "type": "function"
    },
    {
      "inputs": [
        {
          "internalType": "address",
          "name": "spender",
          "type": "address"
        },
        {
          "internalType": "uint256",
          "name": "addedValue",
          "type": "uint256"
        }
      ],
      "name": "increaseAllowance",
      "outputs": [
        {
          "internalType": "bool",
          "name": "",
          "type": "bool"
        }
      ],
      "stateMutability": "nonpayable",
      "type": "function"
    },
    {
      "inputs": [],
      "name": "name",
      "outputs": [
        {
          "internalType": "string",
          "name": "",
          "type": "string"
        }
      ],
      "stateMutability": "view",
      "type": "function"
    },
    {
      "inputs": [],
      "name": "symbol",
      "outputs": [
        {
          "internalType": "string",
          "name": "",
          "type": "string"
        }
      ],
      "stateMutability": "view",
      "type": "function"
    },
    {
      "inputs": [],
      "name": "totalSupply",
      "outputs": [
        {
          "internalType": "uint256",
          "name": "",
          "type": "uint256"
        }
      ],
      "stateMutability": "view",
      "type": "function"
    },
    {
      "inputs": [
        {
          "internalType": "address",
          "name": "to",
          "type": "address"
        },
        {
          "internalType": "uint256",
          "name": "amount",
          "type": "uint256"
        }
      ],
      "name": "transfer",
      "outputs": [
        {
          "internalType": "bool",
          "name": "",
          "type": "bool"
        }
      ],
      "stateMutability": "nonpayable",
      "type": "function"
    },
    {
      "inputs": [
        {
          "internalType": "address",
          "name": "from",
          "type": "address"
        },
        {
          "internalType": "address",
          "name": "to",
          "type": "address"
        },
        {
          "internalType": "uint256",
          "name": "amount",
          "type": "uint256"
        }
      ],
      "name": "transferFrom",
      "outputs": [
        {
          "internalType": "bool",
          "name": "",
          "type": "bool"
        }
      ],
      "stateMutability": "nonpayable",
      "type": "function"
    }
  ],
  "bytecode": "0x60806040523480156200001157600080fd5b506040518060400160405280600981526020017f50757265546f6b656e00000000000000000000000000000000000000000000008152506040518060400160405280600181526020017f500000000000000000000000000000000000000000000000000000000000000081525081600390805190602001906200009692919062000255565b508060049080519060200190620000af92919062000255565b505050620000cc33670de0b6b3a7640000620000d260201b60201c565b620004b1565b600073ffffffffffffffffffffffffffffffffffffffff168273ffffffffffffffffffffffffffffffffffffffff16141562000145576040517f08c379a00000000000000000000000000000000000000000000000000000000081526004016200013c906200033d565b60405180910390fd5b62000159600083836200024b60201b60201c565b80600260008282546200016d91906200038d565b92505081905550806000808473ffffffffffffffffffffffffffffffffffffffff1673ffffffffffffffffffffffffffffffffffffffff1681526020019081526020016000206000828254620001c491906200038d565b925050819055508173ffffffffffffffffffffffffffffffffffffffff16600073ffffffffffffffffffffffffffffffffffffffff167fddf252ad1be2c89b69c2b068fc378daa952ba7f163c4a11628f55a4df523b3ef836040516200022b91906200035f565b60405180910390a362000247600083836200025060201b60201c565b5050565b505050565b505050565b8280546200026390620003f4565b90600052602060002090601f016020900481019282620002875760008555620002d3565b82601f10620002a257805160ff1916838001178555620002d3565b82800160010185558215620002d3579182015b82811115620002d2578251825591602001919060010190620002b5565b5b509050620002e29190620002e6565b5090565b5b8082111562000301576000816000905550600101620002e7565b5090565b600062000314601f836200037c565b9150620003218262000488565b602082019050919050565b6200033781620003ea565b82525050565b60006020820190508181036000830152620003588162000305565b9050919050565b60006020820190506200037660008301846200032c565b92915050565b600082825260208201905092915050565b60006200039a82620003ea565b9150620003a783620003ea565b9250827fffffffffffffffffffffffffffffffffffffffffffffffffffffffffffffffff03821115620003df57620003de6200042a565b5b828201905092915050565b6000819050919050565b600060028204905060018216806200040d57607f821691505b6020821081141562000424576200042362000459565b5b50919050565b7f4e487b7100000000000000000000000000000000000000000000000000000000600052601160045260246000fd5b7f4e487b7100000000000000000000000000000000000000000000000000000000600052602260045260246000fd5b7f45524332303a206d696e7420746f20746865207a65726f206164647265737300600082015250565b61128880620004c16000396000f3fe608060405234801561001057600080fd5b50600436106100b45760003560e01c80633950935111610071578063395093511461019157806370a08231146101c157806395d89b41146101f1578063a457c2d71461020f578063a9059cbb1461023f578063dd62ed3e1461026f576100b4565b806306fdde03146100b9578063095ea7b3146100d757806318160ddd1461010757806323b872dd146101255780632668a62a14610155578063313ce56714610173575b600080fd5b6100c161029f565b6040516100ce9190610d4e565b60405180910390f35b6100f160048036038101906100ec9190610b9c565b610331565b6040516100fe9190610d33565b60405180910390f35b61010f610354565b60405161011c9190610e50565b60405180910390f35b61013f600480360381019061013a9190610b4d565b61035e565b60405161014c9190610d33565b60405180910390f35b61015d61038d565b60405161016a9190610e50565b60405180910390f35b61017b610399565b6040516101889190610e6b565b60405180910390f35b6101ab60048036038101906101a69190610b9c565b6103a2565b6040516101b89190610d33565b60405180910390f35b6101db60048036038101906101d69190610ae8565b6103d9565b6040516101e89190610e50565b60405180910390f35b6101f9610421565b6040516102069190610d4e565b60405180910390f35b61022960048036038101906102249190610b9c565b6104b3565b6040516102369190610d33565b60405180910390f35b61025960048036038101906102549190610b9c565b61052a565b6040516102669190610d33565b60405180910390f35b61028960048036038101906102849190610b11565b61054d565b6040516102969190610e50565b60405180910390f35b6060600380546102ae90610f80565b80601f01602080910402602001604051908101604052809291908181526020018280546102da90610f80565b80156103275780601f106102fc57610100808354040283529160200191610327565b820191906000526020600020905b81548152906001019060200180831161030a57829003601f168201915b5050505050905090565b60008061033c6105d4565b90506103498185856105dc565b600191505092915050565b6000600254905090565b6000806103696105d4565b90506103768582856107a7565b610381858585610833565b60019150509392505050565b670de0b6b3a764000081565b60006012905090565b6000806103ad6105d4565b90506103ce8185856103bf858961054d565b6103c99190610ea2565b6105dc565b600191505092915050565b60008060008373ffffffffffffffffffffffffffffffffffffffff1673ffffffffffffffffffffffffffffffffffffffff168152602001908152602001600020549050919050565b60606004805461043090610f80565b80601f016020809104026020016040519081016040528092919081815260200182805461045c90610f80565b80156104a95780601f1061047e576101008083540402835291602001916104a9565b820191906000526020600020905b81548152906001019060200180831161048c57829003601f168201915b5050505050905090565b6000806104be6105d4565b905060006104cc828661054d565b905083811015610511576040517f08c379a000000000000000000000000000000000000000000000000000000000815260040161050890610e30565b60405180910390fd5b61051e82868684036105dc565b60019250505092915050565b6000806105356105d4565b9050610542818585610833565b600191505092915050565b6000600160008473ffffffffffffffffffffffffffffffffffffffff1673ffffffffffffffffffffffffffffffffffffffff16815260200190815260200160002060008373ffffffffffffffffffffffffffffffffffffffff1673ffffffffffffffffffffffffffffffffffffffff16815260200190815260200160002054905092915050565b600033905090565b600073ffffffffffffffffffffffffffffffffffffffff168373ffffffffffffffffffffffffffffffffffffffff16141561064c576040517f08c379a000000000000000000000000000000000000000000000000000000000815260040161064390610e10565b60405180910390fd5b600073ffffffffffffffffffffffffffffffffffffffff168273ffffffffffffffffffffffffffffffffffffffff1614156106bc576040517f08c379a00000000000000000000000000000000000000000000000000000000081526004016106b390610d90565b60405180910390fd5b80600160008573ffffffffffffffffffffffffffffffffffffffff1673ffffffffffffffffffffffffffffffffffffffff16815260200190815260200160002060008473ffffffffffffffffffffffffffffffffffffffff1673ffffffffffffffffffffffffffffffffffffffff168152602001908152602001600020819055508173ffffffffffffffffffffffffffffffffffffffff168373ffffffffffffffffffffffffffffffffffffffff167f8c5be1e5ebec7d5bd14f71427d1e84f3dd0314c0f7b2291e5b200ac8c7c3b9258360405161079a9190610e50565b60405180910390a3505050565b60006107b3848461054d565b90507fffffffffffffffffffffffffffffffffffffffffffffffffffffffffffffffff811461082d578181101561081f576040517f08c379a000000000000000000000000000000000000000000000000000000000815260040161081690610db0565b60405180910390fd5b61082c84848484036105dc565b5b50505050565b600073ffffffffffffffffffffffffffffffffffffffff168373ffffffffffffffffffffffffffffffffffffffff1614156108a3576040517f08c379a000000000000000000000000000000000000000000000000000000000815260040161089a90610df0565b60405180910390fd5b600073ffffffffffffffffffffffffffffffffffffffff168273ffffffffffffffffffffffffffffffffffffffff161415610913576040517f08c379a000000000000000000000000000000000000000000000000000000000815260040161090a90610d70565b60405180910390fd5b61091e838383610ab4565b60008060008573ffffffffffffffffffffffffffffffffffffffff1673ffffffffffffffffffffffffffffffffffffffff168152602001908152602001600020549050818110156109a4576040517f08c379a000000000000000000000000000000000000000000000000000000000815260040161099b90610dd0565b60405180910390fd5b8181036000808673ffffffffffffffffffffffffffffffffffffffff1673ffffffffffffffffffffffffffffffffffffffff16815260200190815260200160002081905550816000808573ffffffffffffffffffffffffffffffffffffffff1673ffffffffffffffffffffffffffffffffffffffff1681526020019081526020016000206000828254610a379190610ea2565b925050819055508273ffffffffffffffffffffffffffffffffffffffff168473ffffffffffffffffffffffffffffffffffffffff167fddf252ad1be2c89b69c2b068fc378daa952ba7f163c4a11628f55a4df523b3ef84604051610a9b9190610e50565b60405180910390a3610aae848484610ab9565b50505050565b505050565b505050565b600081359050610acd81611224565b92915050565b600081359050610ae28161123b565b92915050565b600060208284031215610afa57600080fd5b6000610b0884828501610abe565b91505092915050565b60008060408385031215610b2457600080fd5b6000610b3285828601610abe565b9250506020610b4385828601610abe565b9150509250929050565b600080600060608486031215610b6257600080fd5b6000610b7086828701610abe565b9350506020610b8186828701610abe565b9250506040610b9286828701610ad3565b9150509250925092565b60008060408385031215610baf57600080fd5b6000610bbd85828601610abe565b9250506020610bce85828601610ad3565b9150509250929050565b610be181610f0a565b82525050565b6000610bf282610e86565b610bfc8185610e91565b9350610c0c818560208601610f4d565b610c1581611010565b840191505092915050565b6000610c2d602383610e91565b9150610c3882611021565b604082019050919050565b6000610c50602283610e91565b9150610c5b82611070565b604082019050919050565b6000610c73601d83610e91565b9150610c7e826110bf565b602082019050919050565b6000610c96602683610e91565b9150610ca1826110e8565b604082019050919050565b6000610cb9602583610e91565b9150610cc482611137565b604082019050919050565b6000610cdc602483610e91565b9150610ce782611186565b604082019050919050565b6000610cff602583610e91565b9150610d0a826111d5565b604082019050919050565b610d1e81610f36565b82525050565b610d2d81610f40565b82525050565b6000602082019050610d486000830184610bd8565b92915050565b60006020820190508181036000830152610d688184610be7565b905092915050565b60006020820190508181036000830152610d8981610c20565b9050919050565b60006020820190508181036000830152610da981610c43565b9050919050565b60006020820190508181036000830152610dc981610c66565b9050919050565b60006020820190508181036000830152610de981610c89565b9050919050565b60006020820190508181036000830152610e0981610cac565b9050919050565b60006020820190508181036000830152610e2981610ccf565b9050919050565b60006020820190508181036000830152610e4981610cf2565b9050919050565b6000602082019050610e656000830184610d15565b92915050565b6000602082019050610e806000830184610d24565b92915050565b600081519050919050565b600082825260208201905092915050565b6000610ead82610f36565b9150610eb883610f36565b9250827fffffffffffffffffffffffffffffffffffffffffffffffffffffffffffffffff03821115610eed57610eec610fb2565b5b828201905092915050565b6000610f0382610f16565b9050919050565b60008115159050919050565b600073ffffffffffffffffffffffffffffffffffffffff82169050919050565b6000819050919050565b600060ff82169050919050565b60005b83811015610f6b578082015181840152602081019050610f50565b83811115610f7a576000848401525b50505050565b60006002820490506001821680610f9857607f821691505b60208210811415610fac57610fab610fe1565b5b50919050565b7f4e487b7100000000000000000000000000000000000000000000000000000000600052601160045260246000fd5b7f4e487b7100000000000000000000000000000000000000000000000000000000600052602260045260246000fd5b6000601f19601f8301169050919050565b7f45524332303a207472616e7366657220746f20746865207a65726f206164647260008201527f6573730000000000000000000000000000000000000000000000000000000000602082015250565b7f45524332303a20617070726f766520746f20746865207a65726f20616464726560008201527f7373000000000000000000000000000000000000000000000000000000000000602082015250565b7f45524332303a20696e73756666696369656e7420616c6c6f77616e6365000000600082015250565b7f45524332303a207472616e7366657220616d6f756e742065786365656473206260008201527f616c616e63650000000000000000000000000000000000000000000000000000602082015250565b7f45524332303a207472616e736665722066726f6d20746865207a65726f20616460008201527f6472657373000000000000000000000000000000000000000000000000000000602082015250565b7f45524332303a20617070726f76652066726f6d20746865207a65726f2061646460008201527f7265737300000000000000000000000000000000000000000000000000000000602082015250565b7f45524332303a2064656372656173656420616c6c6f77616e63652062656c6f7760008201527f207a65726f000000000000000000000000000000000000000000000000000000602082015250565b61122d81610ef8565b811461123857600080fd5b50565b61124481610f36565b811461124f57600080fd5b5056fea26469706673582212207dc9b5e27f4a10a7a89a8308e156fb65ca88479d7cc4d6ecb9d8bb849960a64e64736f6c63430008010033",
  "linkReferences": {},
  "deployedLinkReferences": {}
}